:02000002D0002C
:1040000000400D0048980D00000006000C0005015E
:084010000401E80500000000B6
:04401800E48E0D0025
:10401C0009480A49884208B505D0094A824202D0AB
:10402C00121A04F00CFE0748074A0021121A04F079
:10403C002CFE014808BD00BFC4E2032084970D008C
:10404C0060E3032060E30320F0E7032070B504F085
:10405C003DFC074C074BE41AA40800251E46A5425C
:10406C0004D056F8253098470135F8E770BD00BFED
:10407C007C970D0044970D0000F084B908B500F052
:10408C00EDF8BDE8084004F0E3BB00F0EFBD00F034
:10409C00EDBD00F0F3BD00F0F1BD000008B5034A22
:1040AC0000210C2000F02CFDFEE700BF5D480D0048
:1040BC000078B0FA80F04009704701230370704714
:1040CC007047006A0368DB681847000010B588B0B9
:1040DC000C460146684603F012FE214604A803F084
:1040EC000EFE1749684603F07BFE28B104A803F0C6
:1040FC0089FE144B187014E01349684603F070FEE7
:10410C0028B104A803F07EFE0E4B587009E00F494D
:10411C00684603F065FE50B104A803F073FE094B2A
:10412C009870084B9A785978187803F068FD04A8B1
:10413C0003F09EFD684603F09BFD08B010BD00BF68
:10414C00288F0D00A0E303202C8F0D00328F0D0063
:10415C00012910B51CD10F4A0F4C1268934202D1A1
:10416C00037823700CE00D4A1268934202D1037855
:10417C00637005E00A4A1268934204BF0378A37087
:10418C00A2786178207803F03AFD064B01221A7070
:10419C0010BD00BFE8E20320A0E30320C4E203202B
:1041AC00CCE20320B0E3032010B50446006808B14C
:1041BC0000F064FD204610BD0A4B10B504460360A8
:1041CC0002F076F9214602F063FB04F0BFFA04F02A
:1041DC00B1FA2046044B40F8043B02F05FFA20464B
:1041EC0010BD00BF188F0D00008F0D0010B50446D8
:1041FC00FFF7E2FF2046242104F099FB204610BD76
:10420C000EB400B58CB00DAA202352F8041B0392F7
:10421C008DE8060004930168002304AA1E20059370
:10422C0000F07EFC0CB05DF804EB03B070470EB4EC
:10423C0000B58CB00DAA202352F8041B03928DE814
:10424C00060004930168002304AA3220059300F0B1
:10425C0067FC0CB05DF804EB03B0704730B5254D2E
:10426C00254C2B7885B043B30023227823492B703F
:10427C00684603F0E7FD009A2149224803F0BAFA98
:10428C00684603F0F5FC62781C49684603F0DAFDD9
:10429C00009A1D491B4803F0ADFA684603F0E8FC90
:1042AC00A2781649684603F0CDFD009A17491548C7
:1042BC0003F0A0FA684603F0DBFC154B1A680132D8
:1042CC00062AC8BF00221A601B68124A03EB43037C
:1042DC0013441A88228061789A782078A27003F0AF
:1042EC008EFC01234FF4FA702B7000F0E7FC05B044
:1042FC0030BD00BFB0E30320A0E303207C8F0D0092
:10430C00288F0D000CE403202C8F0D00328F0D0034
:10431C009CE30320D0E2032070B5046843681426A4
:10432C00054606FB0346A64204D0204603F0A0FC3B
:10433C001434F8E7286800F0A1FC284670BDF0B5ED
:10434C000E4691B000210446016041600BAD194648
:10435C0006A8174600F048FE1699284600F044FEC1
:10436C0010AA3B7802F82C3D189B0293179B0193E3
:10437C002046009506AB314601F0FCFA204611B000
:10438C00F0BD000070B501209EB0674C03F027FC17
:10439C0000231A461946606800F038FC00231A46C0
:1043AC001946606800F012FC60496148FFF728FF6D
:1043BC00214615A803F022F915A910A803F028FD31
:1043CC005B48109A5B49FFF71BFF10A803F050FCE9
:1043DC00002211466068544D00F010FC002800F0DB
:1043EC009F8000221146686800F008FC5249504832
:1043FC00FFF706FF514B524900221A7005F10800D5
:10440C00504A03F06FFA024618B14F494848FFF77B
:10441C000EFF4C4A4D494E484E4C4F4D03F062FA3C
:10442C00484A4E494A4803F05DFA4D4B44491B68D3
:10443C000293019522680092042615AA05A88DF80E
:10444C005460FFF77CFF474B40491B680293019572
:10445C002268009207A815AA8DF85460FFF76FFF29
:10446C00414B3E491B68029301952268009209A8B2
:10447C0015AA8DF85460FFF762FF00F0D7FE05AA6D
:10448C00014615A801F02AFB15A800F084FF00F0E6
:10449C00CDFE07AA014615A801F020FB15A800F0D7
:1044AC007AFF00F0C3FE09AA014615A801F016FB1D
:1044BC0015A800F070FF15A800F000FE2B490BA802
:1044CC0000F094FC0BA910A800F090FC10A800F0D0
:1044DC00D7FC044610A844B900F0F0FC1EAA022335
:1044EC0022F8660D0321009406E000F0ECFC00239A
:1044FC00009302461023072115A800F098FD00F048
:10450C0095FE002215A900F0FEFE09A800F043FF5D
:10451C0007A800F040FF05A800F03DFF1EB070BDDD
:10452C0000F044FB54E700BF04E40320378F0D0078
:10453C0000E403204B8F0D007F8F0D00B0E30320B0
:10454C00288F0D00D9400D00578F0D002C8F0D00BA
:10455C000CE40320C8E203205D410D00328F0D00F6
:10456C00E8E20320C4E20320CCE2032088E303202A
:10457C008842F8B506460C46154616D9904215D217
:10458C00A2F114056C1AA1F114070444AF421CD01B
:10459C002CB12946204603F05BFB2B7C2374284668
:1045AC0003F066FB143D143CF0E70ED0AC420CD08B
:1045BC002EB12146304603F04BFB237C337420464E
:1045CC0003F056FB14341436F0E7F8BD2DE9F04136
:1045DC0000230360436083604E689E4204460F468E
:1045EC0024DD4FF0140808FB06F000F03FFB0546F5
:1045FC00E0B194E8060008FB0212FFF7B9FF20684F
:10460C0000F03CFB2560A6603E687B6808FB0368F5
:10461C00464509D02DB13146284603F092FB337C38
:10462C002B7414361435F3E77B6863602046BDE8C1
:10463C00F0810000F0B52C4D2C4E8DB000F018F927
:10464C0000244FF6FF736B812C60AC80AC712C8115
:10465C00032000F07DFA32462549284604F062F921
:10466C0000940194029404F071F8224C07466946B8
:10467C0003A8FFF7ABFF254603A906A8FFF7A6FF83
:10468C001D4B45F8043B06A909A8FFF79FFF09AA93
:10469C001E21284602F063FA09A8FFF73DFE06A882
:1046AC00FFF73AFE154B2360276203A8FFF734FE91
:1046BC00134B236004F04AF84FF4165104F036F80B
:1046CC0001F0F6FE214602F0DDF96846FFF724FE04
:1046DC0032460C49204604F025F90B4B0B4819685F
:1046EC0000F082FC0DB0F0BDA4E3032060E30320D6
:1046FC00B5410D0064E30320008F0D00BC930D0049
:10470C00188F0D00C5410D00C8E2032088E303207B
:10471C0008B5024B1B689B68019308BD7802030027
:10472C0008B5024B1B681B6D019308BD7802030092
:10473C0008B5024B1B689B6D019308BD7802030002
:10474C0008B5024B1B681B6E019308BD7802030071
:10475C0008B5034B1B68D3F89830019308BD0000D3
:10476C007802030008B5034B1B68D3F8A8300193FB
:10477C0008BD00007802030008B5034B1B68D3F892
:10478C00EC30019308BD00007802030008B5034B20
:10479C001B68D3F8F030019308BD000078020300C9
:1047AC0008B5024B1B685B68019308BD4802030007
:1047BC0008B5024B1B689B68019308BD48020300B7
:1047CC0008B5024B1B681B69019308BD4802030026
:1047DC0008B5024B1B685B69019308BD48020300D6
:1047EC0008B5024B1B685B6C019308BD48020300C3
:1047FC0008B5024B1B689B6C019308BD4802030073
:10480C0008B5024B1B68DB6C019308BD4802030022
:10481C0008B5024B1B685B6D019308BD4802030091
:10482C0008B5024B1B68DB6E019308BD4802030000
:10483C0008B5024B1B685B68019308BD18020300A6
:10484C0008B5024B1B689B68019308BD1802030056
:10485C0008B5024B1B68DB68019308BD1802030006
:10486C0008B5024B1B685B69019308BD1802030075
:10487C0008B5024B1B681B68019308BD2C02030092
:10488C0008B5024B1B681B69019308BD6C02030041
:10489C0008B5024B1B685B69019308BD6C020300F1
:1048AC0008B5024B1B689B69019308BD6C020300A1
:1048BC0008B5024B1B685B6D019308BD6C020300CD
:1048CC0008B5024B1B689B6D019308BD6C0203007D
:1048DC0008B5024B1B685B69019308BD64020300B9
:1048EC0008B5024B1B689B69019308BD6402030069
:1048FC0008B5024B1B681B6A019308BD64020300D8
:10490C0008B5024B1B685B6A019308BD6402030087
:10491C0008B5024B1B689B6A019308BD6402030037
:10492C0008B5024B1B689B68019308BD6802030025
:10493C0008B5024B1B68DB68019308BD68020300D5
:10494C0008B5024B1B685B68019308BD3802030075
:10495C0008B5024B1B689B69019308BD3802030024
:10496C0008B5024B1B68DB69019308BD38020300D4
:10497C0008B5024B1B68DB6A019308BD38020300C3
:10498C0008B5024B1B685B6B019308BD3802030032
:10499C0008B5024B1B689B6B019308BD38020300E2
:1049AC0008B5024B1B681B68019308BD3C02030051
:1049BC0008B5024B1B689B68019308BD3C020300C1
:1049CC0008B5024B1B68DB68019308BD3C02030071
:1049DC0008B5024B1B681B69019308BD3C02030020
:1049EC0008B5024B1B685B69019308BD3C020300D0
:1049FC0008B5024B1B689B69019308BD3C02030080
:104A0C0008B5024B1B68DB69019308BD3C0203002F
:104A1C0008B5024B1B689B6A019308BD3C0203005E
:104A2C0008B5024B1B68DB6A019308BD3C0203000E
:104A3C0008B5024B1B681B68019308BD4C020300B0
:104A4C0008B5024B1B685B68019308BD4C02030060
:104A5C0008B5024B1B689B68019308BD4C02030010
:104A6C0008B5024B1B681B69019308BD4C0203007F
:104A7C0008B5024B1B685B69019308BD4C0203002F
:104A8C0008B5024B1B689B69019308BD4C020300DF
:104A9C0008B5024B1B68DB69019308BD4C0203008F
:104AAC0008B5024B1B681B6A019308BD4C0203003E
:104ABC0008B5024B1B685B68019308BD60020300DC
:104ACC0008B5024B1B689B68019308BD600203008C
:104ADC0008B5024B1B68DB68019308BD600203003C
:104AEC0008B5024B1B689B69019308BD600203006B
:104AFC0008B5024B1B68DB69019308BD600203001B
:104B0C0008B5024B1B685B6B019308BD6002030088
:104B1C0008B5024B1B681B6D019308BD60020300B6
:104B2C0008B5024B1B685B6D019308BD6002030066
:104B3C0008B5024B1B68DB6E019308BD60020300D5
:104B4C0008B5024B1B681B6F019308BD6002030084
:104B5C0008B5024B1B685B68019308BD200203007B
:104B6C0008B5024B1B685B69019308BD200203006A
:104B7C0008B5034B1B68D3F88830019308BD0000BF
:104B8C002002030008B5034B1B68D3F89430019343
:104B9C0008BD00002002030008B5034B1B68D3F8C6
:104BAC00A430019308BD00002002030008B5024B9D
:104BBC001B689B68019308BD4402030008B5024BB7
:104BCC001B68DB6B019308BD4402030008B5024B64
:104BDC001B685B68019308BD4002030008B5024BDB
:104BEC001B689B68019308BD4002030008B5024B8B
:104BFC001B68DB68019308BD4002030008B5024B3B
:104C0C001B681B69019308BD4002030008B5024BE9
:104C1C001B685B69019308BD4002030008B5024B99
:104C2C001B689B69019308BD4002030008B5024B49
:104C3C001B68DB69019308BD4002030008B5024BF9
:104C4C001B681B6A019308BD4002030008B5024BA8
:104C5C001B681B6B019308BD4002030008B5024B97
:104C6C001B685B6B019308BD4002030008B5024B47
:104C7C001B681B68019308BD1C02030008B5024B9E
:104C8C001B685B68019308BD1C02030008B5024B4E
:104C9C001B689B68019308BD1C02030008B5024BFE
:104CAC001B685B6A019308BD1C02030008B5024B2C
:104CBC001B68DB6A019308BD1C0203000021FFF78F
:104CCC004FBF7047002070477047002070477047F7
:104CDC000020704710B51421044603F028FE20462E
:104CEC0010BD10B51421044603F021FE204610BD62
:104CFC0010B51421044603F01AFE204610BDFFF730
:104D0C00C8B9FFF7C6B9FFF7C4B910B504460068B7
:104D1C0008B1FFF76DFD204610BD000008B50A2054
:104D2C00024A0021FFF7ECFE08BD00BF5D480D00F4
:104D3C0010B5036804469B689847A368013BA360C1
:104D4C002BB923682046DB68BDE81040184710BD1E
:104D5C00A0F13003DAB2092A01D818467047A0F145
:104D6C006103052B01D857387047A0F14103052B7F
:104D7C0094BF37384FF0FF307047000010B5002358
:104D8C000370044B04461868FFF73AFD01232370A7
:104D9C00204610BDC0E3032010B5037804461BB1B8
:104DAC00024B1868FFF734FD204610BDC0E303200A
:104DBC0008B582798B799A4206D1062203F030FF2E
:104DCC00B0FA80F0400908BD002008BD10B50123E1
:104DDC000361054B024603F1100153F8044B42F8F2
:104DEC00044B8B42F9D110BD28920D0010B50B6904
:104DFC00036101F11002034651F8044B43F8044BD4
:104E0C009142F9D110BD10B50B460446B9B1012A37
:104E1C0009D1034601F1100251F8040B43F8040BBD
:104E2C009142F9D108E0411E0F22985C01F8010F64
:104E3C00013AD2B2FF2AF8D10123236102E01022F9
:104E4C0003F023FF204610BD38B5054614461A461C
:104E5C00FFF7D9FF2C73240A6C73284638BD000069
:104E6C0008B502690AB9808903E01022034903F0EE
:104E7C00D7FE003018BF012008BD00BF28920D00DE
:104E8C000069704738B50C4614220021054603F022
:104E9C00FCFE23692BB9627B237B43EA02232B8024
:104EAC000AE001232B7404F110022B4654F8041B66
:104EBC0043F8041B9442F9D1284638BD427B007B51
:104ECC0040EA02207047704710B50B69036101F18D
:104EDC001002034651F8044B43F8044B9142F9D1AC
:104EEC0010BD10B586B00446012201A8FFF78BFF58
:104EFC0001A92046FFF7E8FF06B010BD08B502690E
:104F0C000B699A4206D1102203F08AFEB0FA80F0A7
:104F1C00400908BD002008BD0123F7B50361314BE2
:104F2C000E460546024603F1100153F8040B42F8F5
:104F3C00040B8B42F9D1002E51D02421304603F0C2
:104F4C001CFF042810D0002710242421304603F025
:104F5C0014FFB84201D944BB41E02C440023A542C4
:104F6C003DD004F8013DFAE73078FFF7F1FE041E5E
:104F7C0018DB7078FFF7ECFE002813DB40EA041016
:104F8C008DF80400B078FFF7E3FE041E0ADBF0781E
:104F9C00FFF7DEFE0028A1BF40EA04109DF80430A4
:104FAC0028736B7300232B6119E0F05DFFF7D0FEC3
:104FBC00030612D4013C000128552421304603F08D
:104FCC00DCFE0137874208D2F05DFFF7C1FE40B22C
:104FDC000028A2BF2B5D184328550137B5E703B055
:104FEC00F0BD00BF28920D0038B504460D46FFF702
:104FFC00EDFE20462946FFF78FFF204638BDF0B561
:10500C008BB10024E51C8D420FD8661C055D875DB5
:10501C00974205D12E44B14207D31C60681CF0BDE9
:10502C0001352C44EEE71846F0BD0020F0BD2DE90B
:10503C00F74304460E461D461746002A3AD00A4648
:10504C0001AB016AFFF7DBFF9DF82830226A03BB36
:10505C00F8B1961C2E44361A1F2E2BD8DDF804807E
:10506C0008F10209C8EB0202121A00EB080105EB69
:10507C00090092B22144204403F0ECFD6B1C04F8AF
:10508C0008302A46394604EB090003F0D8FD2662A5
:10509C0010E0901C2B181F2B0CD86B1CA354224413
:1050AC0020623946567020442A4603F0C8FD226A15
:1050BC002A442262206A03B0BDE8F0831FB504467F
:1050CC00034600F11F02002003F8010B93424FF03E
:1050DC000001F9D104AA062302F8013D0123216243
:1050EC00009120461946FFF7A2FF204604B010BDE0
:1050FC0073B50A460E4601AB016A0446FFF77FFF03
:10510C00054678B10198226A2918121A521B2144BB
:10511C00204403F094FD236A5D1B25623146204632
:10512C00FFF7E6FF02B070BD38B500254FF6FF73F0
:10513C00044643800E22294605700571063003F0A3
:10514C00A4FD04F11400FFF741FE04F12800FFF761
:10515C003DFE044904F13C0002F0D1FDE5642565F7
:10516C00204638BD7C930D0010B58369C26903EBF2
:10517C00C2029342184606D0046824888C4203F17C
:10518C000803F6D110BD002010BD10B50A6852F806
:10519C00023F03605368436010BD1FB502680B6883
:1051AC0012881B889A420C460CD101466846FFF7C0
:1051BC00ECFF214602A8FFF7E8FF02A96846FFF7BB
:1051CC00F7FD00B9002004B010BD000010B5044676
:1051DC003420FEF75AFF014668B100230360436098
:1051EC008360C360036143618361C3610362436293
:1051FC008362C3620363216019B90A4A0A20FFF76C
:10520C007FFC0020FFF784FA20B1064A00210A2017
:10521C00FFF776FC002221680348FFF7B7FA204617
:10522C0010BD00BF5D480D002D560D0010B50A4C89
:10523C002368DB070ED42046FEF73AFF50B107482F
:10524C00FFF7C4FF2046FEF738FF054A054903481F
:10525C0003F068FB014810BDB8E30320B4E303205E
:10526C0060E3032017540D0070B50368093B012B54
:10527C008AB004460E4619D8FFF7D8FFA1880068FB
:10528C00FFF772FF024658B920230293084B039094
:10529C00009302AA034607493220FFF739FC05E0C8
:1052AC00F56C1DB1336DE1682069A8470AB070BD7B
:1052BC00D2900D0088900D00084609B90A4601E00D
:1052CC00096A0022FFF72CBA10B50C4611B90A4630
:1052DC00084606E001212046FFF70AFF216A00225A
:1052EC002046BDE81040FFF723BA13B501A8FFF71D
:1052FC0045FD0020FFF724FA044601A8FFF74CFDFA
:10530C00204602B010BD73B505460C4601A81646E2
:10531C00FFF734FD21462846FFF7CEFF002808DBB7
:10532C0031462846FFF7D0FF002802DB2846FFF75E
:10533C00DCFF044601A8FFF72FFD204602B070BD2C
:10534C000B68036013B15A6801325A60704710B58C
:10535C0051F8043B044640F8043BFFF7F1FF236887
:10536C000BB9FFF7DBFC204610BD10B551F8043B20
:10537C00044640F8043BFFF7E3FF204610BD10B590
:10538C000446006828B14368013B43600BB9FFF742
:10539C00CFFC204610BD10B504460430FFF7EFFFDC
:1053AC00204610BD70B504684368054604EBC3067F
:1053BC00A64204D0201DFFF7E2FF0834F8E7286866
:1053CC00FFF75CFC284670BD70B504684368054661
:1053DC0004EBC306A64204D0201DFFF7D0FF08340F
:1053EC00F8E72868FFF74AFC284670BD10B5046939
:1053FC0004F11800FFF7E8FF04F10C00FFF7D2FFEF
:10540C002046BDE81040FEF744BEF8B504680746D8
:10541C00C4B1A569E36905EBC306AE4204D0281DEF
:10542C00FFF7ADFF0835F8E7A069FFF727FC04F19B
:10543C000C00FFF7C9FF2046FFF7B4FF34212046CC
:10544C0003F075FA3846F8BD73B500250560456064
:10545C0006462420FEF719FE044678B103464FF6A3
:10546C00FF7223F8022BC0F802505D608572C57282
:10547C00C560056145618561C56105620023142025
:10548C000193FEF702FE034628B1012242608260BE
:10549C00084A0260046102A8726840F8042D736027
:1054AC003460FFF76CFF33680BB9FFF737FC3046FD
:1054BC0002B070BD64900D0038B50C6803689C4256
:1054CC0005460CD014B1636801336360286828B1B9
:1054DC004368013B43600BB9FFF72AFC2C6028465C
:1054EC0038BD884270B515461AD9904219D2A1F12F
:1054FC000806511A0439151F44182B1F9E4225D03B
:10550C00042C07D055F8043C44F8043C29462046AA
:10551C00FFF716FF2846FFF732FF083D083CECE783
:10552C0014D00C1D061D231F9D420FD0042E07D036
:10553C0054F8043C46F8043C21463046FFF700FF83
:10554C002046FFF71CFF08340836ECE770BD2DE948
:10555C00F041046843680546884604EBC307A7423C
:10556C0018D041462046FFF718FE064608B9083405
:10557C00F5E78CB1201DFFF702FF2B686A6804F178
:10558C00080103EBC2022046FFF7ABFF6B68013B3F
:10559C006B6002E0002600E026463046BDE8F08154
:1055AC00F7B5044651F8043B4768009301A8FFF790
:1055BC00C7FE6668A3689E4214DB0136002E0BDD25
:1055CC00F000FFF753FB054618B394E8060001EB17
:1055DC00C202FFF786FF00E000252068FFF74EFBB4
:1055EC002560A6602668626806EBC70506EBC2025A
:1055FC00294605F10800FFF774FF35B1009B46F80A
:10560C00373001A9281DFFF79BFE636801336360E7
:10561C00012501A8FFF7B3FE284603B0F0BD00003A
:10562C002DE9F04104468EB003A80D46FFF7A6FB0A
:10563C002368032B02D0042B42D087E004A8FFF789
:10564C0003FF049B22891A806268049952F8083F70
:10565C00C1F802305368C1F8063007A8049B0693C2
:10566C0005A9FFF76DFE06A905F11800FFF798FFD5
:10567C00044607A8FFF783FE2023069374B9364B24
:10568C00009306AA2346354907943220FFF740FAC7
:10569C00049B21461888FFF75BF80DE0304A009216
:1056AC00002306AA2D4907930120FFF731FA6B6AF4
:1056BC0013B1E96A04A8984705A8FFF760FE45E016
:1056CC0021892846FFF750FD074600283ED0046884
:1056DC00A369E1694FF6FF72228003EBC101994285
:1056EC0003D053F8080B4280F9E7E668236906EB10
:1056FC00C308B04504D0301DFFF741FE0836F8E76B
:10570C0000232361A669E36906EBC308B04504D006
:10571C00301DFFF734FE0836F8E70023E361A3726F
:10572C00E372AB6A13B1296B3846984720230D4AB4
:10573C0006930092002309490793012006AAFFF75C
:10574C00E7F9394605F11800FFF701FF03A8FFF749
:10575C0023FB0EB0BDE8F081EA900D0088900D009F
:10576C0010910D002D910D008842F8B506460C469F
:10577C00154614D9904213D2A2F108056C1AA1F166
:10578C0008070444AF4218D01CB129462046FFF745
:10579C00ECFD281DFFF7F3FD083D083CF2E70CD0AB
:1057AC00AC420AD01EB121463046FFF7DEFD201D6B
:1057BC00FFF7E5FD08340836F2E7F8BD70B50E1EAC
:1057CC0005460BDDF000FFF751FA044670B195E881
:1057DC00060001EBC202FFF7C7FF00E000242868B7
:1057EC00FFF74CFA2C60AE60012070BD70BD73B534
:1057FC00044645686846FFF7B8FD6168A36899429E
:10580C0005DB01312046FFF7D9FF064698B1236826
:10581C00626803EBC50503EBC202294605F10800DB
:10582C00FFF7A2FF1DB169462846FFF79EFD63688E
:10583C0001336360012601A8FFF7A1FD304602B0D9
:10584C0070BD8842F8B506460C46154614D99042F0
:10585C0013D2A2F108056C1AA1F108070444AF4257
:10586C0018D01CB129462046FFF771FD281DFFF703
:10587C0086FD083D083CF2E70CD0AC420AD01EB1C4
:10588C0021463046FFF763FD201DFFF778FD0834F5
:10589C000836F2E7F8BD70B50E1E05460BDDF000BC
:1058AC00FFF7E4F9044670B195E8060001EBC2027B
:1058BC00FFF7C7FF00E000242868FFF7DFF92C6032
:1058CC00AE60012070BD70BD73B504464568684676
:1058DC00FFF73DFD6168A368994205DB0131204665
:1058EC00FFF7D9FF064698B12368626803EBC5053C
:1058FC0003EBC202294605F10800FFF7A2FF1DB118
:10590C0069462846FFF723FD63680133636001266F
:10591C0001A8FFF734FD304602B070BD10B5044647
:10592C00406808B1FEF7B5FB204610BD07B503690A
:10593C000C308DE8090003F13C0002F099F968463F
:10594C00FFF7ECFF03B05DF804FB000038B5002353
:10595C000446036014200D46FEF797FB28B1012383
:10596C0043608360024B036005612060204638BDB4
:10597C002C900D002DE9F04188B005461E465420B0
:10598C0000230F46904604930593FEF77EFBCDF85B
:10599C0018D004460790C0B198F80080FFF7C4FBFC
:1059AC00394604F13C0084F8048002F0D5F90F9BD1
:1059BC00E3643146109B236504F11400FFF784FA6D
:1059CC000E9904F12800FFF77FFA2146002601AB5F
:1059DC0002AA03A80796FFF7B9FF039B059A039247
:1059EC0003A805930494FFF7CAFC06A8FFF796FFDB
:1059FC00049B2968059A2B6008A86B6806916A605D
:105A0C0040F8043D05960496FFF7B9FC05A8FFF78E
:105A1C00B6FC296819B9034A0A20FFF771F808B0D7
:105A2C00BDE8F0815D480D0010B50446406808B132
:105A3C00FEF72FFB204610BD07B503690C308DE82F
:105A4C0009006846FFF7F0FF03B05DF804FB0000A7
:105A5C0038B500230446036014200D46FEF715FBF1
:105A6C0028B1012343608360024B03600561206011
:105A7C00204638BD48900D00F0B5002687B0066072
:105A8C004660044618200F46FEF7FFFACDF810D0FA
:105A9C000546059038B1FFF799F939462846AE828C
:105AAC00EE82FFF711FA00232946059302AA01ABF7
:105ABC0003A8FFF7CDFF039B62682560636003A812
:105ACC000392FFF75CFC04A8FFF7AEFF23680BB949
:105ADC00FFF724F9204607B0F0BD00002DE9F04F88
:105AEC001746A1B080460AA80E46FFF747F93C6856
:105AFC002379002B00F0DE803368DD681B6905EB31
:105B0C00C303039304F1140A04F1280B039BAB4267
:105B1C0023D0D5F80090504609F11401FFF7EEF9A7
:105B2C00002800F0CC8009F128015846FFF7E6F96F
:105B3C00002800F0C480236823F47F41D9F800309A
:105B4C0023F47F43994240F0BA802023604A159396
:105B5C0000230092169315AAA8E004F128094846E0
:105B6C00FFF77EF918B95B494846FFF7BAF9336875
:105B7C001D685B6805EBC30A5545494605D0286886
:105B8C00FFF7BCF958BB0835F6E70BA8FFF774FF15
:105B9C00494615A8FFF776F90B9A0023143215A97C
:105BAC000120FEF7DFFD002878D135680BA90DA880
:105BBC00FFF7DBFB28460DA9FFF719FE05460EA8DB
:105BCC00FFF7DDFB002D69D03268556805F10053F5
:105BDC001568013B0CA805EBC305FFF7D0FB04F1DE
:105BEC0014094846FFF73CF968B93B4B39491A8808
:105BFC00013292B21A8015A80123FFF725F915A9D5
:105C0C004846FFF761F94FF02C0A5246002115A8BF
:105C1C0003F03BF80123494604A8ADF85430ADF825
:105C2C0056A0FFF72FF904AB18AA0DF1200C186839
:105C3C0059689646AEE80300083363457246F6D1C0
:105C4C001868CEF8000023798DF858302B689B8AA1
:105C5C00ADF87430E36B17930022204B1E93A11DFB
:105C6C0015A81F94FEF788FD20BB01232370346810
:105C7C0039460C340DA8FFF76AFB20460DA9FFF737
:105C8C0023FE04460EA8FFF77AFB9CB920230D9344
:105C9C00134B00930E9423460DAA07E03946404659
:105CAC00FFF755FB0CA8FFF76AFB0AE00D49322001
:105CBC00FEF72EFF39464046FFF749FB01E0083559
:105CCC0024E70AA8FFF768F8404621B0BDE8F08F3A
:105CDC00FD910D0078900D00BCE3032075520D0072
:105CEC00D6910D0088900D0010B5064C002320466F
:105CFC002360FEF775FD2046034A0449BDE81040B9
:105D0C0002F010BEC0E3032060E30320174D0D002A
:105D1C0010B58368044613B1032201469847204608
:105D2C0010BD002211464068FEF788BF00221146C4
:105D3C004068FEF793BF00224068FEF787BF002241
:105D4C0081F001014068FEF771BF00231A46194625
:105D5C004068FEF763BF00231A4619464068FEF7F9
:105D6C0055BF002211464068FEF748BF002211467D
:105D7C004068FEF733BF002202214068FEF736BFB1
:105D8C0000231A464068FEF721BF0000024B032295
:105D9C005A60024A1A607047C4E3032040920D0017
:105DAC00704710B51821044602F0C1FD204610BD05
:105DBC00F0B5037D062B8DB00E4600F104074FF0B5
:105DCC00000402D000F1080518E00CAD394605F8C6
:105DDC00304D2F232A460A20FEF77AFD284602F082
:105DEC00AFFF33680246DB682946304698470FE020
:105DFC0024B12E21304601F083FE044415F8011D18
:105E0C000A22304601F08BFEBD420444F0D12046FC
:105E1C000DB0F0BD10B5054B0446112240F8043B03
:105E2C00002102F032FF204610BD00BF74920D001D
:105E3C000346074A10B543F8042B01F1100251F840
:105E4C00044B43F8044B9142F9D10A781A7010BDF7
:105E5C0074920D00037D042B01D1406808E0062BE1
:105E6C000AD1436853B9836843B9C36833B900692D
:105E7C00003018BF01207047002070470120704788
:105E8C0010B59DF8084044EA032343EA024242EA73
:105E9C00016104234160037510BD37B50D788B7813
:105EAC004A78C97800912946FFF7EAFF03B030BD64
:105EBC0000F11002012312F8101C0129104604D124
:105ECC0052F8041C03EB410304E0022904BF52F80E
:105EDC00041C5B18013B02F11002ECD170470EB4AC
:105EEC002DE9F04187B000AF07F13404054654F8B2
:105EFC00046B7C6023463246102107F10800FEF744
:105F0C00CDFE0F2816D900F1080323F00703E8464D
:105F1C00ADEB030D3246411C234668467C60FEF710
:105F2C00BDFE021E04DD2B6869469B682846984717
:105F3C00C54607E030B12B6802469B6807F10801A3
:105F4C00284698471C37BD46BDE8F04103B0704762
:105F5C0013B502AB026803F8011D946819460122BF
:105F6C00A04702B010BD8368FBB11A78032A1AD877
:105F7C00DFE802F00417021D0520704702685B6819
:105F8C005268D05C2D2814D0A0F13003092B10D905
:105F9C00742810D066280ED0A0F16E0358425841D8
:105FAC007047062070470020704718467047042041
:105FBC007047032070470220704710B50446FFF766
:105FCC00D2FF02280DD016D3042814D82268A36857
:105FDC0050685B680A2200211844BDE8104002F0AA
:105FEC0071BF2268A36852685B68D05CA0F174032F
:105FFC005842584110BD002010BD10B543690446ED
:10600C005BB18068E060013B1030A060206163618F
:10601C002BB1FFF74DFFA06001E0184610BD012029
:10602C0010BD10B57D210446FFF792FF01232371AB
:10603C00204610BD08B50379012B02D0022B02D0EB
:10604C0008BD2C2100E03A21FFF782FF08BD10B5F6
:10605C000446FFF7EFFF20467B21FFF779FF002373
:10606C002371204610BD000038B504460D46FFF7DD
:10607C00E1FF23680449DB6820462A469847012340
:10608C002371204638BD00BF7C8F0D0038B5044607
:10609C000D46FFF7CFFF23680449DB6820462A46EC
:1060AC00984701232371204638BD00BF8F920D0005
:1060BC00F8B50D461746222104462F44FFF748FF3A
:1060CC002A462946BA4238D0164616F8015B222DCC
:1060DC0003D05C2D01D01F2D2DD82368521A9B683C
:1060EC00204698475C212046FFF732FF0C2D19D033
:1060FC0007D8092D0FD00A2D12D0082D14D16221EA
:10610C000AE0222D05D05C2D03D00D2D0CD172216F
:10611C0002E0294600E074212046FFF719FF09E050
:10612C006E21F9E76621F7E723680A49DB682A46FE
:10613C002046984731463246C4E7914204D0236842
:10614C00521A9D682046A84722212046FFF700FFDF
:10615C00F8BD00BFA0920D0070B504460D46164662
:10616C00FFF768FF204632462946FFF7A1FF0223BE
:10617C002371204670BD70B504460D461646FFF7D8
:10618C0059FF204632462946FFF792FF012323711F
:10619C00204670BD10B500230446036043601048D0
:1061AC00A060E360D1B10B78032B06D0B3B91368B0
:1061BC0058684B68C35C6E2B08D0136858684B68E2
:1061CC000344A3608B6849685B1AE3601146204660
:1061DC0051F8043B40F8043BFFF76EF9204610BD24
:1061EC007C930D00002310B504460360436083606C
:1061FC00C3600361436171B10B78012B0BD101F1C9
:10620C0010038360CB684361114651F8043B40F89E
:10621C00043BFFF751F9204610BD002310B504468E
:10622C0003604360816031B1114651F8043B40F882
:10623C00043BFFF741F9204610BD80680368DB681A
:10624C001847704719B10B6808465B6818477047C8
:10625C0019B10B6808465B68184770477047704760
:10626C00704738B504460D4600682E2102F04CFDEF
:10627C002368C31A2B6023B1037803B10130236860
:10628C002060184638BD10B50C21044602F04FFBB7
:10629C00204610BD10B50421044602F048FB2046F0
:1062AC0010BD10B50421044602F041FB204610BD80
:1062BC0038B50C46054602F049FA84420DD002F07E
:1062CC00B9F9844205D102F0B5F9BDE8384002F0C5
:1062DC00AEB921462846FFF7BBFF38BD08B502F022
:1062EC001DFDB0FA80F0400908BD38B505460846DA
:1062FC000C4602F025FD214602462846BDE83840F2
:10630C00FFF739BF0068FEF77BBA70B50446084644
:10631C000D4602F015FD2368024629462046DB682F
:10632C00BDE87040184713B502AB026803F8011DB5
:10633C00D46819460122A04702B010BD2DE9F04FD8
:10634C004568076885B09146142255430193AB10FC
:10635C00194D02925D438B463C460123002D03935D
:10636C0023DD029B6E1003FB06F004EB00084A468B
:10637C00B8F804A02058D14528BF5246594602F01F
:10638C00E7FC039B48B9D14503D1019A13703546FC
:10639C00E4E78CBF0120002000E0C00F0028F6D0FD
:1063AC00AE1B08F11404013EF1E7E41B0248A410F3
:1063BC00604305B0BDE8F08FCDCCCCCCF0B585B04A
:1063CC0003690191067E13B309B304AF002347F8A8
:1063DC00043D00F10C041D46394601A8FFF741FFAE
:1063EC000146A0B104AB039A03F8055D2046FFF704
:1063FC00A5FF9DF80B3053B12368142404FB003423
:10640C00083434F9023C002BA8BFDEB2E4E7304676
:10641C0005B0F0BD10B5094C2368DB070BD4204642
:10642C00FDF746FE38B12046FDF747FE044A054904
:10643C00054802F077FA044810BD00BFCCE30320F6
:10644C0060E303206B620D00F0E2032010B5094CF1
:10645C002368DB070BD42046FDF72AFE38B1204613
:10646C00FDF72BFE044A0549054802F05BFA044887
:10647C0010BD00BFFCE3032060E3032069620D0044
:10648C00ECE2032038B500250446056045608560C4
:10649C0005614561856140F8245FFEF7A1F9FFF7BE
:1064AC00B9FFE061FFF7D2FF25732062204638BDAB
:1064BC0010B50A4C2368DB070ED42046FDF7F8FD17
:1064CC0050B10748FFF7DEFF2046FDF7F6FD054A01
:1064DC000549034802F026FA014810BDD0E3032019
:1064EC00D4E3032060E3032027690D000023024A54
:1064FC0002490348FEF724BB09680D0099670D009B
:10650C0021670D0000231A4619461846FEF718BBE2
:10651C0073B502AC8E6851F8043B44F8083D05464F
:10652C0001A8FEF70DFF224631462846FFF75AFE1A
:10653C0001A8FEF724FF284602B070BD73B502AC6B
:10654C000E6951F8043B44F8083D054601A8FEF7D6
:10655C00F7FE224631462846FFF75FFE01A8FEF7FC
:10656C000EFF284602B070BD73B502ACCE6851F870
:10657C00043B44F8083D054601A8FEF7E1FE22461F
:10658C0031462846FFF706FE01A8FEF7F8FE28461E
:10659C0002B070BD30B58BB00D46014604A8FFF7B4
:1065AC00B7FF04A8FFF729FDE8B104A96846FFF777
:1065BC00DBFF0F490298FFF791FE044610B12C1C2B
:1065CC0018BF012401A8FEF7DAFE002CE9D004A9BB
:1065DC006846FFF7B3FF6846FFF7EFFC286001A899
:1065EC00FEF7CDFEDDE705A8FEF7C9FE0BB030BD0A
:1065FC00D8920D0037B50C4620461349154602F0CB
:10660C008DFB40B902F0A2F84FF4165102F08EF84F
:10661C0002F09CF815E00D49204602F07FFB78B99A
:10662C0002A94FF4165341F8043D2846FFF7B2FF78
:10663C0002F000F8019901F0F7FF01F0FBFF00E018
:10664C00002003B030BD00BFDD920D00E4920D00C0
:10665C0070B5046843681426054606FB0346A6423B
:10666C0005D004F10800FFF7F3FF1434F7E72868AE
:10667C00FEF704FB284670BD70B5046843680546F8
:10668C0004EB0316A64204D0204601F0F1FA1034B4
:10669C00F8E72868FEF7F2FA284670BD10B50446F4
:1066AC000C30FFF7D5FF2046FFF7E6FF204610BD64
:1066BC0010B5044B044640F8043BFFF7EFFF2046AF
:1066CC0010BD00BF008F0D0010B50446FFF7F0FFA2
:1066DC002046242102F02BF9204610BD10B5034BA7
:1066EC0003600446FFF7E4FF204610BDC8920D007E
:1066FC0010B50446FFF7F2FF2046242102F017F9EB
:10670C00204610BD10B5036804461868FEF780F8E3
:10671C00204610BD2DE9F04F9B461B4B5B68C3F325
:10672C00080385B082460E46904653BBFFF7C0FE69
:10673C00044624300390FFF7E5FD237BF3B90123D6
:10674C00237325686368F6B205EB83094D4513D0B6
:10675C0055F8047B4146381DFFF730FE8642F5D3D1
:10676C003B68CDF800B09B689E463846434632469F
:10677C0051467746B847E9E70023237303A8FFF790
:10678C00C1FF05B0BDE8F08F00ED00E02DE9F74F3B
:10679C009946194B5B68C3F30803074688461646AF
:1067AC0033BBFFF785FE044624300190FFF7AAFDAA
:1067BC00237BD3B901232373256863685FFA86FBB7
:1067CC0005EB830A55450ED055F8046B4946301D30
:1067DC00FFF7F4FD8345F5D333684246DB68394651
:1067EC0030469847EEE70023237301A8FFF78AFF92
:1067FC0003B0BDE8F08F00BF00ED00E02DE9F341E0
:10680C00154B5B68C3F3080304468846FBB9FFF7D6
:10681C004FFE064624300190FFF774FD96E8A00069
:10682C00462605EB8707AF4207D101A8FFF76AFFA1
:10683C00B442B4BF002001200AE055F8040B4146D5
:10684C000430FFF7BBFD8642A8BF0646EBE70020ED
:10685C0002B0BDE8F08100BF00ED00E070B5036848
:10686C004268044603EB82029A4218460ED0066830
:10687C000D68AE4203F10403F6D1011D521A02F069
:10688C00E9F96368013B6360012070BD002070BDB5
:10689C001FB50446243001910390FFF733FD01A985
:1068AC002046FFF7DBFF20B903A8FFF72BFF04B04E
:1068BC0010BD6368002BF7D1FFF724FEF4E770B529
:1068CC00056943691826044606FB0356AE4215D0EB
:1068DC0005F110012046FFF7C1FF63680BB9FFF704
:1068EC0011FEE06929690368DB689847696919B189
:1068FC00206A0368DB6898471835E7E72569636900
:10690C00182606FB0356B54204D0284601F0B0F910
:10691C001835F8E70023636170BD73B5044602AD0A
:10692C00FFF7F0FD04F1240045F8040DFFF7EAFC35
:10693C002046FFF7C4FF2846FFF7E4FE606A08B163
:10694C00FDF756FF25696369182606FB0356B54209
:10695C0004D0284601F08CF91835F8E72069FEF7C9
:10696C008DF92068FEF78AF9204602B070BD0368E5
:10697C000A6802600B6043684A6842604B60836837
:10698C008A6882608B60704710B5002304460360F0
:10699C0043608360FFF7EBFF204610BD8842F8B5DB
:1069AC000446164625D9904224D2551A143D2C443F
:1069BC00A1F11407A2F10C050026A5F108039F42D2
:1069CC0037D084B155F8083C236035F8043CA380DB
:1069DC0035F9023CE380A660E6602661294604F1A5
:1069EC000800FFF7C4FF2846FFF732FE143C143DA5
:1069FC00E3E71ED001F108050027A5F108039E422C
:106A0C0017D084B155F8083C236035F8043CA380BA
:106A1C0035F9023CE380A760E7602761294604F161
:106A2C000800FFF7A4FF2846FFF712FE14341435B4
:106A3C00E3E7F8BDF8B5456883689D4204460E4609
:106A4C0017460EDB0135002D05DDA9000068FEF7A9
:106A5C001DF920B9F8BD0068FEF710F90020206080
:106A6C00A5602568626805EB860105EB8202521A67
:106A7C00081D02F0EFF845F8267063680133636077
:106A8C000120F8BD37B5044624300D460190FFF7C0
:106A9C0039FC2368616803EB810083421A4609D0F4
:106AAC001268AA4203F10403F7D101A8FFF72AFEEA
:106ABC0000250EE02A462046FFF7BCFF05460028BD
:106ACC00F3D06368012B01D1FFF710FD01A8FFF78C
:106ADC0019FE284603B030BD8842F8B506460C4670
:106AEC00154614D9904213D2A2F110056C1AA1F1DB
:106AFC0010070444AF4218D01CB12946204601F0BF
:106B0C00A7F8284601F0B4F8103D103CF2E70CD081
:106B1C00AC420AD01EB12146304601F099F820460D
:106B2C0001F0A6F810341036F2E7F8BD70B50E1E61
:106B3C0005460BDD3001FEF799F8044670B195E877
:106B4C00060001EB0212FFF7C7FF00E000242868E3
:106B5C00FEF794F82C60AE60012070BD70BD2DE97D
:106B6C00F04F002395B09246462203604360836049
:106B7C00C3600361436102760291DAF80410089352
:106B8C009942054609930A9340F39D8008A8FFF7A4
:106B9C00CDFF002840F097808EE021460BA801F035
:106BAC0057F80BA90FA8099E01F052F809990A9BF6
:106BBC009942C0F2CE80013108A8FFF7B7FF002838
:106BCC0040F0C7800FA801F053F80BA801F050F863
:106BDC001434A742E1D100260B960C960D96B146C3
:106BEC00099B9E4280F2A8803301089AD3580693E1
:106BFC00002B00F09F8014237343CDF81C9001935D
:106C0C000BAC07A906A8FFF72CFB0746002800F0E1
:106C1C00918014AB014603F8399D079A2046FFF783
:106C2C008DFB9DF817800090B8F1000F53D1BDF883
:106C3C001C30ADF840304FF6FF730F97ADF8423073
:106C4C00CDF84480CDF84880CDF84C806768A368B7
:106C5C009F424FDA009BD4F800B061681422534372
:106C6C000BEB030702FB01B207F114003946039347
:106C7C00FFF794FEA7B1039B0F9A4BF80320BDF8C6
:106C8C004030BB80BDF94230FB80C7F80890C7F894
:106C9C000C90C7F8109011A907F10800FFF767FED8
:106CAC0063680133636011A8FFF7D2FCB8F1000FE1
:106CBC0011D00BA8FFF7CCFC08A8FFF7DDFC284689
:106CCC0015B0BDE8F08FDAF80040DAF8043014277C
:106CDC0007FB03477DE72368009A142404FB023466
:106CEC00069B1B7823BBDAF80030019A13441B7CFB
:106CFC00E3801DE00137002F0FDD142303FB07F0A9
:106D0C000393FDF7B3FF834678B194E80600039B29
:106D1C0003FB0212FFF742FE00E0C3462068FDF7BA
:106D2C00ADFFC4F800B0A76094E74FF00108BAE7D4
:106D3C00083466E7013653E708A92846FFF717FE23
:106D4C000BA905F10C00FFF712FE9DF808302B760D
:106D5C00AFE7089B099A03EB061603EB02123146C8
:106D6C0006F11000FFF7B8FE1EB10FA9304600F077
:106D7C006FFF099B0133099324E700007FB504469C
:106D8C00094B44F8043B05460E4601A81146FDF795
:106D9C001DFC01AA31462046FFF7E1FE01A8FDF7D4
:106DAC00BBFA284604B070BD008F0D00F0B50F463D
:106DBC008BB02B49109C384616461D4601F0AEFF91
:106DCC0028BB002C49D0294601A8FFF7DDFD254939
:106DDC00242001F0B7FD0546B8B101A904A8FFF7BE
:106DEC00D3FD04A907A8FDF7F1FB07AA31462846F5
:106DFC00FFF7C4FF07A8FDF78FFA1B4B2B602C6223
:106E0C0004A8FDF789FA194B2B6001A81FE018495B
:106E1C00384601F083FFF0B9FCB1294604A8FFF70E
:106E2C00B3FD1049242001F08DFD054670B104A975
:106E3C0007A8FDF7CBFB07AA31462846FFF79EFFB4
:106E4C0007A8FDF769FA084B2B602C6204A8FDF724
:106E5C0063FA284602E0002000E020460BB0F0BDAB
:106E6C0036930D00DC950D00BC930D00C8920D00FF
:106E7C003A930D00014B024A1A60704700E403205C
:106E8C004B930D002DE9F047089DD0F82090044657
:106E9C000E461746984601F059FC814505D15A48D3
:106EAC0000F093FD002840F0AC802B791B0705D532
:106EBC006B69564A206A002100F051FEB8F1000FB0
:106ECC000DD05B212046FFF72EFA41462046FFF7F6
:106EDC001CFA23684E49DB680222204698472B791E
:106EEC00D90725D5D5F808802F21404601F051FF50
:106EFC0008B100F1010841462046FFF706FA2B794C
:106F0C009A0709D53A212046FFF70DFAEB68414A5A
:106F1C00206A002100F023FE2B7913F0040F236864
:106F2C0018BF3D49DB6808BF3C4902222046984700
:106F3C002B795B0718D529690A46134613F8010B00
:106F4C0038B1202801D1194601E0282801D01A4671
:106F5C00F3E72368521ADB682046984723683049C8
:106F6C00DB6804222046984700213846FDF7E0FDF7
:106F7C0001462046FFF7C9F923682849DB6802223D
:106F8C00204698471EB131462046FFF7BEF92B79B3
:106F9C0013F0300F2DD023682249DB6820460222E3
:106FAC0098472B79D8060BD523681F49DB68072235
:106FBC0020469847AB691D4A206A002100F0CFFD9E
:106FCC002B79990611D5DA0605D523681249DB68A9
:106FDC0002222046984723681549DB6820460A227E
:106FEC009847E9692046FFF790F95D212046FFF7A5
:106FFC009AF923680F49DB6820460222BDE8F04766
:10700C001847BDE8F08700BFD8E503204F930D006B
:10701C0056930D007C8F0D0059930D005E930D005F
:10702C005C930D0061930D0064930D006C930D0047
:10703C006F930D007A930D002DE9F04385B0D0F8D5
:10704C0020800C9C06460F4691461D4601F07EFBA7
:10705C00804505D14A4800F0B8FC002840F08C80EF
:10706C00336A484A01924FF0000801A803938DF847
:10707C000880FEF7ECFF41464846FDF759FD4249B2
:10708C008046012201A8FFF767F84146FFF72DF96A
:10709C003FB13E49012201A8FFF75EF83946FFF7E0
:1070AC0024F93DB13A49012201A8FFF755F82946C8
:1070BC00FFF71BF92379DF070ED5A5682F2128468A
:1070CC0001F067FE00B1451C3249012201A8FFF70F
:1070DC0043F82946FFF709F923799D0707D52E496F
:1070EC00022201A8FFF738F8E168FEF7BDFF23790B
:1070FC00580716D525692F463B4613F8012B3AB194
:10710C00202A01D11D4601E0282A01D01F46F3E7B1
:10711C000222224901A8FFF71FF87A1B2946FFF724
:10712C002AF82379190707D51D49012201A8FFF771
:10713C0013F86169FEF7AAFF2379DA0608D5042251
:10714C0018490DEB0200FFF707F8A169FEF78CFF59
:10715C0023799B0607D51449062201A8FEF7FCFFEC
:10716C00E169FFF7C2F801A8FEF75BFF306A0F492F
:10717C0003680222DB68984705B0BDE8F08300BFC6
:10718C00D8E50320B0920D00E2920D00F5920D00AF
:10719C00AE930D0096920D007D930D0080930D0023
:1071AC000A930D0083930D0088930D007A930D00C4
:1071BC0010B501230374836804460BB1C06806E064
:1071CC00006828B183680BB901F0CDFBC368984700
:1071DC00012363740020BDE81040FDF721BB0022A1
:1071EC0011464068FDF72ABD002211464068FDF7A4
:1071FC0035BD00224068FDF729BD002281F0010158
:10720C004068FDF713BD00231A4601214068FDF7C5
:10721C0005BD00231A4619464068FDF7F7BC00224D
:10722C0011464068FDF7EABC002211464068FDF7A4
:10723C00D5BC002202214068FDF7D8BC00231A46B9
:10724C004068FDF7C3BC38B5054688B104684CB13D
:10725C00A3681BB1032221462046984710212046E3
:10726C0001F065FB28461421BDE8384001F05FBBF6
:10727C0038BD10B103685B681847704710B50368D8
:10728C000446BBB15868FDF793FA78B923685A7C69
:10729C0012B95868FDF794FA23685868FDF798FA04
:1072AC0020680023236028B1FFF7CDFF206808B1C8
:1072BC00FFF7C9FF204610BD38B50446D0F8C4010D
:1072CC0008B1FCF7E8FED4F8C00108B1FDF790FA5C
:1072DC00D4F8BC5135B12846FFF7D0FF042128461D
:1072EC0001F025FB206808B1FFF7C3FF204638BD2D
:1072FC0010B5044B044640F8083BFFF7DDFF204671
:10730C0010BD00BF04940D002DE9F84F0B9F9DF8A4
:10731C0028B00646884691469A4604460025236CBA
:10732C004B4529D1636C534526D194F848305B45C5
:10733C0022D14021404601F020FD41460246204624
:10734C0001F006FDC0B96FB10C21384601F015FDF6
:10735C00024638B1582303FB05603946493001F029
:10736C00F7FC04E0582000FB056595F84900B0FADD
:10737C0080F04009BDE8F88F0135052D04F1580463
:10738C00CDD10020BDE8F88F2DE9F04F85B0074630
:10739C009DF838A00F9E0196CDF800A08946029268
:1073AC000393FFF7B1FF00283CD10446582303FB9D
:1073BC000475D5F84080B8F1000F2ED14021484615
:1073CC0001F0DBFC494683460246284601F037FCB7
:1073DC00CBF14002414605EB0B0001F056FC029B41
:1073EC002B64039B6B6485F849802EB10C213046CD
:1073FC0001F0C3FC054600E03546582044433819DB
:10740C003C442A4631464930254401F018FC002002
:10741C0085F8490084F848A005E00134052CC6D154
:10742C00024800E0002005B0BDE8F08FFCFEFFFF35
:10743C0007B5002301930093FFF7A6FF03B05DF897
:10744C0004FB2DE9F341044608460D46904601F035
:10745C0077FC04F5DC760746236CABB14021204663
:10746C0001F08BFC874202460BD32946204601F0E3
:10747C00D7FB30B9009043462A4621465820FDF7E9
:10748C008BFB5834B442E7D102B0BDE8F081000068
:10749C0030B58DB004461122002101A801F0F5FB96
:1074AC00062301AA09498DF814300A20FDF718FAB1
:1074BC0007AD01A906A8FEF7BBFC0FCD04340FC421
:1074CC002B68237000200DB030BD00BF30940D0030
:1074DC002DE9F041054600F5E0768AB03046FEF71E
:1074EC0011FF2C68D5F8C001FDF792F9002C63D080
:1074FC00D5F8C43163B12368D5F8C4111F6B20468D
:10750C004FF47A734FF49A62B847041E13DC56E0BA
:10751C002D494FF49A6001F024FAD5F8C431C5F81E
:10752C00C40113B11846FCF7B6FDD5F8C431002BD5
:10753C00E1D1264844E02023254A029300920023FF
:10754C00019402AA234903930120FDF7E1FAD5F82F
:10755C00C4315F1C1B786BBB013C2146384601F0E3
:10756C000CFC38B3241A002C07EB000822DD3B5C22
:10757C0003BB013C0ED008F101082146404601F046
:10758C00FCFB241A002C15DD18F8003093B9012CE3
:10759C0002D00FE0DFF844803046FEF7B3FE4246DF
:1075AC003946281DFFF74DFFD5F8C001FDF730F91E
:1075BC00002005E0084803E06420FDF741F920466F
:1075CC000AB0BDE8F08100BFDC950D00FCFEFFFFAA
:1075DC0044940D003D940D00E8FEFFFF7C930D00DC
:1075EC0010B50446BFF35F8F94F8C831BFF35F8FBB
:1075FC001BB92046FFF76CFFF4E710BDF0B589B05E
:10760C000C4607460021112203A801F03EFB06237D
:10761C0008A98DF81C30002341F81C3D2079FDF79A
:10762C003FF9002831D108A941F8180D0198FDF750
:10763C003FF950BB029D2DB3EB681C6863780A2B95
:10764C001ED11548A668FDF753F906401348FDF7FF
:10765C004FF9864214D0A36993B1EB68DB687BB118
:10766C001B78062B0CD104F1080303AD18341868F1
:10767C0059682A4603C20833A3421546F7D101E0E4
:10768C002D68D8E70298FDF71BF903A93846FEF7D9
:10769C00CFFB384609B0F0BD0000C0FF000080FEF3
:1076AC0010B50468016044B12046FFF7E7FD2046A1
:1076BC000421BDE8104001F03AB910BD2DE9F041AC
:1076CC0005468AB000F5E070FEF71CFE2C68002C15
:1076DC007BD14C20FCF7D9FC0646002873D000F077
:1076EC009FFE22464FF49A61304600F0C9FE0AA96B
:1076FC003A4801F8194DFDF7C3F833689DF80F208F
:10770C001B6A49F269013046984704A8FEF782FBD0
:10771C0004A8FFF7BDFE00284ADB04A9304600F0A0
:10772C001BFF002844DBBFF35F8F85F8C841BFF314
:10773C005F8F2B49042001F005F905F5DE7807462B
:10774C0048B32749142001F0FDF828B104740460F3
:10775C0044608460C46044743860B0B1214B836071
:10776C003B682149DD6038684FF440638DE80900BF
:10777C0003221E4B0430FDF713F830B93B681B7C19
:10778C004BB90120FDF75CF8F8E7386800233B6043
:10779C0008B1FFF758FD39464046FFF781FFD5F891
:1077AC00BC313BB128682E6030B1FFF762FD0CE0B4
:1077BC00044603E00E4C01E0044607E036B13046C7
:1077CC00FFF757FD02E00A4C00E00024D5F8C00199
:1077DC00FDF71EF820460AB0BDE8F08154940D0068
:1077EC00DC950D00ED750D0058940D00BD710D006C
:1077FC00FCFEFFFF2DE9F04705468CB016460F4600
:10780C0009B10B780BB9354C64E0084601F098FAD5
:10781C008046002E5CD0304601F092FA441C08F1F0
:10782C0002032344B3F59A6F4FD805F5E070FEF7C9
:10783C0069FD2846FFF742FF002840DB6846FEF74B
:10784C00E9FA6846FFF724FE002838DBD5F800A0DB
:10785C00DAF800300DF1040CD3F83890204B069375
:10786C00BCE80F000DF11C0EAEE80F00DCF8003088
:10787C008EF8003049F2690206A95046C847002824
:10788C001DDB002328688DF8183003680122DB68A3
:10789C0006A998472868036808F10102DB68394695
:1078AC0098472CB1286803682246DB683146984714
:1078BC00286803681B6C984700EAE07400E00446F3
:1078CC00D5F8C001FCF7A4FF04E06FF0BD0401E0A3
:1078DC003446A4E720460CB0BDE8F087F2FEFFFF6B
:1078EC0074920D00F8B5054600F5E0700E4617468B
:1078FC00FEF708FD2846FFF7E1FE002807DB3A46B5
:10790C003146281DFFF794FD00EAE07400E00446C0
:10791C00D5F8C001FCF77CFF2046F8BD38B50E4CFD
:10792C000E4B23600025022304F5E4706360A56010
:10793C00C4F8C451C4F8C851FCF752FF084BC4F842
:10794C00CC5184F8D05123602046064A0649BDE844
:10795C00384000F0E7BF00BF04E4032068940D003A
:10796C0004940D0060E30320FD720D0000231A4601
:10797C004068FDF72BB9002202214068FDF736B9AB
:10798C00002211464068FDF729B9002211464068D3
:10799C00FDF734B900231A4619464068FDF736B98D
:1079AC0000231A4619464068FDF738B9002281F0C9
:1079BC0001014068FDF73AB900224068FDF746B96D
:1079CC00002211464068FDF749B900221146406873
:1079DC00FDF734B92DE9F043002495B016460D4659
:1079EC000746FEF717FA214620220CA8009401F056
:1079FC004CF940230C9321466B460CAA3046FCF7FD
:107A0C0097FF0446002844D1024601216868FDF71F
:107A1C00F5F80221804622466868FDF7EFF8009ED3
:107A2C0081462146002E34D0002932D17368022BB6
:107A3C0002D00A2B09D02AE0B8F1000F27D07169C7
:107A4C0038460431FEF729FA20E0B9F1000F1ED0B8
:107A5C007469112201A801F018F906238DF814306D
:107A6C0001AD04F108031834186859682A4603C29A
:107A7C000833A3421546F7D101A906A807ADFEF7B6
:107A8C00D7F90FCD3C1D0FC42B6823700121F6696B
:107A9C00C8E70098FCF744FF384615B0BDE8F08302
:107AAC00024B034A1A6000225A607047D8E5032043
:107ABC0068940D00F8B506460D468F180024BD429B
:107ACC000CD0336815F8011B9B683046984700288A
:107ADC0001DB0444F3E7002C08BF04462046F8BD44
:107AEC0070B505460C46084649B101F029F92B68DA
:107AFC00024621462846DB68BDE87040184770BD39
:107B0C0003689B68184738B50D210546FFF7F8FF49
:107B1C000A2104462846FFF7F3FF204438BD30B550
:107B2C008BB00B4600218DF82410012A98BF0A2235
:107B3C000DF12304B3FBF2F505FB123303F0FF0345
:107B4C00092B94BF30333733DBB2214604F80139AB
:107B5C002B46002DEED1FFF7C3FF0BB030BD0CB49C
:107B6C002DE9F04387B000AF07F13804054654F80F
:107B7C00049B3C600E4623464A461421381DFDF7F3
:107B8C008DF8132805D8391D2846FFF7A9FF0446A0
:107B9C0013E000F1080323F00703E846ADEB030DF7
:107BAC00411C23464A4668463C60FDF777F8694617
:107BBC002846FFF795FF0446C5461EB12846FFF739
:107BCC00A2FF044420461C37BD46BDE8F04302B07A
:107BDC00704710B50446FEF79BF8204610BD10B553
:107BEC000446FCF77DFF844208D01CB1BDE8104070
:107BFC00FCF766BFBDE81040FCF76ABF10BD70B55E
:107C0C0005460E461446FCF76BFF50B144EA0620BD
:107C1C0040EA0540FCF74CFFE720BDE87040FCF75C
:107C2C0067BF70BD0348044A04490023836000F019
:107C3C0079BE00BFE0E5032060E30320DF7B0D008D
:107C4C00704710B50C21044600F071FE204610BDA3
:107C5C000023036043608360037310B50C680460F9
:107C6C004C6844608C6884600B604B608B6010BD0A
:107C7C0010B504460068FDF701F8204610BD10B59C
:107C8C000446006808B1FCF7F9FF00232360A360E9
:107C9C00636010BD38B504460D4600680131FCF731
:107CAC00F5FF10B184E82100012038BD10B5036840
:107CBC00044613B143688B4207D22046FFF7EAFF14
:107CCC0020B1A3680BB922681370012010BD70B5E8
:107CDC000E46114604461546FFF7E8FF18B9204634
:107CEC00FFF7CDFF09E02A463146A560206800F079
:107CFC00A6FF2268A3680021D154204670BD38B578
:107D0C000023044603604360836003730D4639B15E
:107D1C00084601F015F8294602462046FFF7D7FF22
:107D2C00204638BD884210B50B46044607D009687A
:107D3C0019B19A68FFF7CBFF01E0FFF7A0FF2046CF
:107D4C0010BD10B5002304460360436083600373C9
:107D5C00FFF7E8FF204610BD38B505460C4641B18B
:107D6C00084600F0EDFF214602462846FFF7AFFF1C
:107D7C0001E0FFF784FF284638BD70B504460E4677
:107D8C0009B9002070BD6AB18368D5182946FFF780
:107D9C008DFF0028F5D02068A3683146184400F008
:107DAC00C7FFA560012070BD38B5044680688568A2
:107DBC00FFF7E3FFA3689868401B38BD07B50023A5
:107DCC008DF80410012201A98DF80530FFF7D5FFBD
:107DDC0003B05DF804FB08B58068FFF7EFFF08BD42
:107DEC0008B582680B4612B919B9012008BD11B942
:107DFC000368187802E0006800F090FFB0FA80F099
:107E0C00400908BD006808B100F0F8BE70470000DA
:107E1C0030B585B000230D46029303604360836048
:107E2C0003731421064B019304460390FFF73EFFA6
:107E3C002B6801A91B6828469847204605B030BD21
:107E4C009C940D000EB4FFB509AC054654F8047BA8
:107E5C00019423463A46052102A8FCF71FFF0C4962
:107E6C0006462846FFF74BFF31462846FFF71EFF14
:107E7C00286830B123463A46711C0194FCF70EFF7A
:107E8C00A860284604B0BDE8F04003B0704700BFBE
:107E9C007C930D0010B5094C00204FF6FF73206049
:107EAC00A080A07120816381FCF752FE2046044A19
:107EBC000449BDE8104000F035BD00BFF0E50320DB
:107ECC0060E30320B5410D00024B1A68024B1A60A7
:107EDC00704700BFF4E20320FCE5032010B40468F3
:107EEC00246BA4465DF8044B604703689B6C1847F1
:107EFC00808E7047028FC08E101A704713B502AB7C
:107F0C00026803F8011DD46819460122A04702B08B
:107F1C0010BD10B503681B690446984728B1E38E61
:107F2C00E26B591CE186D05C10BD4FF0FF3010BDE8
:107F3C0010B503681B690446984718B1E38EE26BD1
:107F4C00D05C10BD4FF0FF3010BD704710B403462D
:107F5C000846DC6BD98E1A8F0368521ADB682144F1
:107F6C005DF8044B1847A0F11000FFF7EFBFF0B518
:107F7C0003688DB01C265B6A04460F46154698476D
:107F8C0001233246002105A8029300F07EFE8DF8F5
:107F9C00146038460A268DF81560FCF7B9FC1122DE
:107FAC00ADF8160002213046FCF7F2FC00286061A7
:107FBC0024DB0422009202AB40F6FF71FCF7C8FCF4
:107FCC00E0B995B10390ADF8100003A9E8B2FCF745
:107FDC005FFC98B90623009341F20B0203AB40F609
:107FEC00FF716069FCF7B4FC40B91C2205A96069FB
:107FFC00FCF7A6FC10B96564012004E02368204658
:10800C005B6A984700200DB0F0BD10B5044640697E
:10801C00002801DBFCF7A4FC4FF0FF336361002365
:10802C00E386238710BD38B5C36B0546C08E13B1EC
:10803C002C6C241A00E01C46944228BF144622469D
:10804C00184400F0FCFDEB8E2344EB86204638BD33
:10805C0070B503681B6904460E461546984788B1EF
:10806C00236820461B699847E38EE16B8542A8BFC5
:10807C00054619442A46304600F0E1FDE38E2B44B8
:10808C00E38601E04FF0FF35284670BD70B504461D
:10809C00054B44F8043B01F1200506460FCD0FC4F7
:1080AC002B682370304670BD74920D00F0B5944669
:1080BC00026889B0976A0A4A02921D1D8E460646CE
:1080CC000FCD03AC0FC42B682370BDF83830009370
:1080DC00624602AB71463046B84709B0F0BD00BFEE
:1080EC0074920D00F0B50368B0F836E09F6A0D4B42
:1080FC0089B000F12006044602930FCE03AD0FC5E4
:10810C0033682B70A38E0093724602ABE16B204652
:10811C00B84723680546DB6920469847284609B0CE
:10812C00F0BD00BF74920D00F0B54378022B8DB0FA
:10813C0005460C46174601D1011D33E00A2B35D1FB
:10814C001122002101A800F0A0FDAB6843B9EB6837
:10815C0033B94FF6FF702E69FCF7CAFB86421FD06D
:10816C0005F1080301AE05F1180E1868596832467E
:10817C0003C2083373451646F7D1062301A906A896
:10818C0007AE8DF81430FDF753FE0FCE04340FC438
:10819C003368237057B16888FCF7B2FB388005E070
:1081AC0005F114012046FDF778FEF3E70DB0F0BDA4
:1081BC002DE9F0418EB00EAB002506461746084659
:1081CC0043F8345D2A462946FCF7B2FB00281FDB36
:1081DC00019BFBB15B69EBB102A8FDF71BFE019B98
:1081EC002A46586902A9FFF79FFF02A8FDF732FE45
:1081FC0080B1336803ADD3F838800B4B08930FCDA7
:10820C0009AC0FC42B6823703A4608A93046C04706
:10821C00044601E04FF0FF340198FCF781FB204647
:10822C000EB0BDE8F08100BF74920D002DE9F0474F
:10823C00D0F81480B8F1000F8CB005460C461746E8
:10824C00994600DB11B94FF0FF3035E04FF01C0AB6
:10825C0005AE52460021304600F017FDCDF808A0BF
:10826C00B9F1000F14D04FF47A72B9FBF2F103910B
:10827C0002FB11914A4308230492009341F2060237
:10828C0003AB40F6FF714046FCF762FB08B113E00C
:10829C00082002AB01932146034600963A466869D2
:1082AC00FCF766FB041E06DB05F1340205F11C012C
:1082BC003046FFF739FF20460CB0BDE8F08738B5E3
:1082CC00054614462B7D062B084611D11C23137032
:1082DC000A235370FCF71CFB083424F8060C2B1DE6
:1082EC00143553F8042B44F8042BAB42F9D138BDA8
:1082FC00042B0AD11023137002235370FCF708FBD4
:10830C0060806868FCF7F4FA606038BD2DE9F043D2
:10831C008BB003AC1C25994606460F4690460021AF
:10832C002A46204600F0B1FC2246BDF848104846CB
:10833C00FFF7C5FF9DF80D3043B18DE830000023E9
:10834C00424639467069FCF71BFB01E04FF0FF30E9
:10835C000BB0BDE8F083F0B591B00C460646002199
:10836C00154609A81C221F4600F08FFC09AA002103
:10837C002046FFF7A4FF9DF82530022B2ED10023B9
:10838C0005930A9B0493DDB102A92846FCF788FAF1
:10839C00B0B910A941F8340D0298FCF789FA60B90C
:1083AC00039B53B1DA6812685178022903D15268E1
:1083BC000AB1059201E01B68F3E70398FCF780FA19
:1083CC00002F4FF00803009318BF032204AB08BF23
:1083DC00042200213046FCF7BBFA1EE00A2B1AD10E
:1083EC0004AC14220021204600F04FFC0BAB0FCB49
:1083FC00002F84E80F004FF01403009318BF0C22D9
:10840C00234608BF0D22292130460895FCF7A0FA17
:10841C0000EAE07001E04FF0FF3011B0F0BD000059
:10842C0038B54FF47A7383600B4B03F108026C334D
:10843C00002503614FF0FF33044645600260436141
:10844C001C30FDF7E7FC4FF40073E5862587E563E8
:10845C0023646564204638BDD8940D0010B590F89F
:10846C004830044623B1C06B10B1012100F05FFA13
:10847C000023E36384F848302364E386238710BD2C
:10848C0070B5044616460D46FFF7E8FF0023E66379
:10849C0023643EB935B12846FBF7F9FD0123E063AF
:1084AC0084F84830E36B03B12564206C003018BFAE
:1084BC00012070BDF8B51746C26B05460C461AB9BB
:1084CC00016C09B1FFF7DCFF04340FCC05F1200679
:1084DC000FC6236833700023AF86EB862B87286C7E
:1084EC00F8BD70B5C26B04460E461AB9016C09B1E1
:1084FC00FFF7C6FFE16B0022E286228749B1226CAE
:10850C003AB1236820461D6B3346A8470028C8BFE4
:10851C002087236820461B69BDE87040184700007F
:10852C0010B5074B03F108026C330446026003617B
:10853C00FFF76BFD2046FFF791FF204610BD00BFF3
:10854C00D8940D0010B50446FFF7EAFF20464C21E5
:10855C0000F0EDF9204610BD02464069002804DB0E
:10856C00012392F84420FFF7F6BE4FF0FF3070471E
:10857C0070474174704708B5007CFCF749FA20EA53
:10858C00E07008BD08B5007CFCF722FA20EAE07028
:10859C0008BD08B5007CFCF72BFA30EA200028BF98
:1085AC004FF0FF3008BD08B5007CFCF719FA30EA33
:1085BC00200028BF4FF0FF3008BD007CFCF720BA2C
:1085CC0010B51421044600F0B2F9204610BD70B568
:1085DC00457C04460E4625B9007CFCF719FA0028A8
:1085EC0005DD3146207CBDE87040FCF7E9B9284632
:1085FC0070BD000010B504460846114600226260AA
:10860C004FF47A72A260054A2260012220746274CF
:10861C001A46FCF7C5F9204610BD00BF50950D0059
:10862C000023007CFCF7FCB90022FFF7F9BF007CAB
:10863C00FCF7BEB938B50C4D296811F0010411D105
:10864C002846FBF735FD68B1084A094B0948214615
:10865C00FFF7D0FF2846FBF730FD074A07490548CE
:10866C0000F060F9034838BD98E603209CE603202F
:10867C0014E6032000E6032060E303207D850D0053
:10868C0041747047704708B50021007CFCF7F8F97D
:10869C0030EA200028BF4FF0FF3008BD08B501219B
:1086AC00007CFCF7EDF930EA200028BF4FF0FF30DA
:1086BC0008BD08B5007CFCF7DBF920EAE07008BDCA
:1086CC0008B5007CFCF7CCF920EAE07008BD007C12
:1086DC00FCF7E6B910B51421044600F028F9204641
:1086EC0010BD38B50446007C0D46FCF7C1F90028D6
:1086FC0001DC607C28B12946207CFCF7C9F920EA12
:10870C00E07038BD10B50446002363604FF47A73F3
:10871C00A360054B23600123084621746374114642
:10872C00FCF786F9204610BD80950D000022007CD8
:10873C00FCF786B9007CFCF78BB910B51422044603
:10874C00002100F0A2FA204610BD000030B50E4DFD
:10875C0087B001A8FFF7F1FF296811F0010410D1CF
:10876C002846FBF7A5FC60B101AA21460748FFF794
:10877C00C9FF2846FBF7A1FC054A0649034800F04F
:10878C00D1F8024807B030BD20E7032024E70320CE
:10879C0060E3032091860D00002211464068FCF72F
:1087AC002DBA002211464068FCF748BA0022114647
:1087BC004068FCF753BA00224068FCF747BA002225
:1087CC0081F001014068FCF731BA00231A461946C2
:1087DC004068FCF723BA00231A4619464068FCF798
:1087EC0015BA002211464068FCF7F8B900220221A4
:1087FC004068FCF7FBB900231A464068FCF7E6B961
:10880C00024B04225A60024A1A60704738E7032070
:10881C00B0950D0008B50C4B33B1FFF797FF03680B
:10882C001B699847002809DC084B63B1FFF702FF6E
:10883C0003681B699847002803DC08BDAFF3008070
:10884C00F2E7AFF3008008BD00000000000000005C
:10885C0008B5FFF7DFFFFCF703F8014B186008BD04
:10886C0048E703200248034A0349121A00F0E7B90B
:10887C0000F4032004F4032080970D0007B50023B7
:10888C0000931A466FF07701FCF77CF903B05DF8A2
:10889C0004FB000007B543880A2B08D0502B09D1E4
:1088AC00094B1B683BB103B05DF804EB1847FFF7AD
:1088BC00E5FF06E0002300931A466FF07701FCF702
:1088CC0061F903B05DF804FB40E7032038B5104CA8
:1088DC00104D2368AB42104B0CBF012200221A70C2
:1088EC0002D0FFF7BFFF2560FBF7A2FF044600F0A4
:1088FC00D5F90A4B13B12046AFF30080002107488D
:10890C00FCF75CF900210648BDE83840FCF730B9AB
:10891C0000F403201E1C279A44E7032000000000EB
:10892C00A1880D000B460146184600F06BB9FBF709
:10893C00B0BB0000024B1868BFF35F8F704700BFDD
:10894C004CE7032010B5002814BF04460124204630
:10895C00FCF78CF920B9FFF7EDFF08B18047F6E77B
:10896C0010BDFFF7EFBF08B5FCF7A0F9244B1A6850
:10897C00D0075CBF01221A60224B1A68D1075CBF7A
:10898C0001221A60204B1A68D2075CBF01221A60C0
:10899C001E4B1A68D0075CBF01221A601C4B1A6868
:1089AC00D1075CBF01221A601A4B1A68D2075CBF50
:1089BC0001221A60184B1A68D0075CBF01221A609A
:1089CC00164B1A68D1075CBF01221A60144B1A6847
:1089DC00D2075CBF01221A60124B1A68D0075CBF29
:1089EC0001221A60104B1A68D1075CBF01221A6071
:1089FC000E4B1A68D2075CBF01221A60704700BF89
:108A0C007CE7032078E7032074E7032070E703205A
:108A1C006CE7032068E7032064E7032060E703208A
:108A2C005CE7032058E7032054E7032050E70320BA
:108A3C00184B1A68D1075CBF01221A60164B1A68D2
:108A4C00D2075CBF01221A60144B1A68D0075CBFB6
:108A5C0001221A60124B1A68D1075CBF01221A60FE
:108A6C00104B1A68D2075CBF01221A600E4B1A68B1
:108A7C00D0075CBF01221A600C4B1A68D1075CBF8F
:108A8C0001221A600A4B1A68D2075CBF01221A60D5
:108A9C00704700BF9CE7032098E7032094E703206E
:108AAC0090E703208CE7032088E7032084E703206A
:108ABC0080E70320184B1A68D1075CBF01221A60AB
:108ACC00164B1A68D2075CBF01221A60144B1A6845
:108ADC00D0075CBF01221A60124B1A68D1075CBF29
:108AEC0001221A60104B1A68D2075CBF01221A606F
:108AFC000E4B1A68D0075CBF01221A600C4B1A6827
:108B0C00D1075CBF01221A600A4B1A68D2075CBFFE
:108B1C0001221A60704700BFBCE70320B8E70320AE
:108B2C00B4E70320B0E70320ACE70320A8E7032059
:108B3C00A4E70320A0E70320244B1A68D0075CBFEE
:108B4C0001221A60224B1A68D1075CBF01221A60FD
:108B5C00204B1A68D2075CBF01221A601E4B1A68A0
:108B6C00D0075CBF01221A601C4B1A68D1075CBF8E
:108B7C0001221A601A4B1A68D2075CBF01221A60D4
:108B8C00184B1A68D0075CBF01221A60164B1A6882
:108B9C00D1075CBF01221A60144B1A68D2075CBF64
:108BAC0001221A60124B1A68D0075CBF01221A60AE
:108BBC00104B1A68D1075CBF01221A600E4B1A6861
:108BCC00D2075CBF01221A60704700BFECE703209C
:108BDC00E8E70320E4E70320E0E70320DCE70320D9
:108BEC00D8E70320D4E70320D0E70320CCE7032009
:108BFC00C8E70320C4E70320C0E703200A220021B2
:108C0C0000F060B910B5054C13462CB10A4601466C
:108C1C000220AFF3008010BD204610BD0000000004
:108C2C0010B501390244904207D010F8013B11F8FD
:108C3C00014FA342F7D0181B10BD002010BD10B57A
:108C4C00431E0A44914204D011F8014B03F8014F22
:108C5C00F8E710BD884210B501EB020301D8421EA3
:108C6C000BE09842FBD28118D21AD34204D013F8ED
:108C7C00014D01F8014DF8E710BD994204D011F8EF
:108C8C00014B02F8014FF8E710BD02440346934232
:108C9C0002D003F8011BFAE77047000038B5124BFD
:108CAC001C68A36B0546D3B91820FBF7DFFF43F212
:108CBC000E33A06303804AF6CD33438041F2342354
:108CCC0083804EF26D63C3804DF6EC630381052304
:108CDC0043810B23838101220023C0E90423A36B6E
:108CEC0000221D615A6138BD5CE30320C9B2034602
:108CFC0010F8012B1AB19142F9D11846704700298E
:108D0C000CBF18460020704710B50446FFF7EEFF65
:108D1C0018B9204600F014F8204410BD10F8012BAF
:108D2C0011F8013B012A28BF9A42F7D0D01A70479C
:108D3C00034611F8012B03F8012B002AF9D17047D7
:108D4C00034613F8012B002AFBD1181A013870477F
:108D5C0030B582B1451E013915F8013F11F8014FAC
:108D6C00A34206D1EC431444E04201D0002BF3D1D2
:108D7C001C46181B30BD104630BD10B503460144CF
:108D8C008B4204D01A785C1C0AB12346F8E7181AF7
:108D9C0010BD38B503460D4641B10024294618468E
:108DAC00FFF7A4FF30B1431C0446F7E7BDE8384099
:108DBC00FFF79CBF204638BD2DE9F0478046404860
:108DCC00D0F800900F463D4615F8014B09EB040016
:108DDC00407800F0080000F0FF0608B12F46F2E7DB
:108DEC002D2C03D1BD1C7C78012603E02B2C04BF59
:108DFC007C78BD1C13B1102B0AD15BE0302C57D101
:108E0C00287800F0DF0058284DD16C7810230235FB
:108E1C00002E14BF4FF0004C6FF0004C0027BCFB31
:108E2C00F3FA384603FB1ACC09EB040E9EF801E06A
:108E3C001EF0040F01D0303C0BE01EF0030E1BD0D3
:108E4C00BEF1010F0CBF4FF0370E4FF0570ECEEBAB
:108E5C000404A34210DDB7F1FF3F0AD0504506D8F9
:108E6C0001D1644503DC03FB0040012701E04FF016
:108E7C00FF3715F8014BD7E77B1C0CD1002E4FF0B8
:108E8C00220314BF4FF000406FF00040C8F80030D0
:108E9C002AB9BDE8F08706B1404272B107B1691E2C
:108EAC001160BDE8F0873024002BB1D10823AFE767
:108EBC000A23ADE7302CA3D0AAE7BDE8F08700BFAA
:108ECC00F8E2032013460A46014602480068FFF701
:108EDC0073BF00BF5CE303201D400D0059400D0023
:108EEC0085400D0089400D000000000000000000CE
:108EFC00000000000000000000000000A9400D0070
:108F0C00CD400D000000000000000000C5410D0028
:108F1C00F9410D00916E0D00CF400D00726564009B
:108F2C00677265656E00626C7565004D65736820CF
:108F3C00636F6E6E6563742063616C6C6564006C4A
:108F4C006F63616C49503A202573004661696C650A
:108F5C006420746F20737562736372696265207725
:108F6C00697468206572726F7220636F64653A2051
:108F7C002564004D6573682069732072656164799E
:108F8C00210035324642443543442D384339452D72
:108F9C00344338342D423346372D4536373442422C
:108FAC003433393432300035324642443543432D64
:108FBC00384339452D344338342D423346372D450B
:108FCC00363734424234333934323000353246424B
:108FDC00443543422D384339452D344338342D42E2
:108FEC003346372D453637344242343339343230F8
:108FFC000035324642443543412D384339452D34F2
:10900C004338342D423346372D45363734424234BB
:10901C003339343230000000000000000000000042
:10902C00DB4C0D00E14C0D0039590D000B4D0D00C2
:10903C00DD4C0D000000000000000000D54C0D00C0
:10904C00EF4C0D00455A0D000F4D0D00D74C0D0087
:10905C000000000000000000CF4C0D00FD4C0D0086
:10906C00F9530D00134D0D00D14C0D007BE327740B
:10907C007BF815ACDD49A913000072F577697269AC
:10908C006E672E626C650053746172742064697330
:10909C00636F766572696E67207365727669636556
:1090AC00732E00537461727420646973636F7665F8
:1090BC0072696E672063686172616374657269734B
:1090CC00746963732E0050656572206465766963FC
:1090DC0065206973206D697373696E672100466141
:1090EC00696C656420746F20617070656E642070AB
:1090FC006565722043656E7472616C206465766977
:10910C0063652E00436F6E6E6563746564206279CF
:10911C002043656E7472616C206465766963652E9C
:10912C0000446973636F6E6E656374656420627965
:10913C002072656D6F7465206465766963652E00B9
:10914C0043616E6E6F7420616464206E657720706D
:10915C00656572206465766963652E004E657720BF
:10916C007065726970686572616C20697320636FD9
:10917C006E6E65637465642E004661696C6564206F
:10918C00746F20617070656E6420646973636F76B0
:10919C00657265642063686172616374657269737A
:1091AC007469632E004661696C656420746F20617C
:1091BC007070656E6420646973636F766572656444
:1091CC0020736572766963652E004661696C65640F
:1091DC0020746F20617070656E64206C6F63616CBD
:1091EC002063686172616374657269737469632E5C
:1091FC00004475706C6963617465642063686172A6
:10920C00616374657269737469632063616E6E6FF8
:10921C00742062652061646465642E00FB349B5F7E
:10922C008000008000100000000000000000000022
:10923C00000000008D5D0D00835D0D00795D0D005B
:10924C006F5D0D00635D0D00575D0D004B5D0D00F6
:10925C00435D0D00395D0D002F5D0D00E1790D00B2
:10926C000000000000000000BD5D0D00AD5D0D00B4
:10927C00AF5D0D00302E300066616C73650074724A
:10928C00756500257500252E2A6C66002567006E15
:10929C00756C6C00752530347800000000000000FF
:1092AC00000000006D620D0093620D0047620D001E
:1092BC00EB5E0D000000000000000000E9660D00F0
:1092CC00FD660D0045700D004F620D006261756406
:1092DC000053657269616C0053657269616C310091
:1092EC007479706500706172616D00636D64006902
:1092FC006400686E64007374726D0066696C74004F
:10930C006C766C0061646448616E646C65720072AA
:10931C00656D6F766548616E646C657200656E751F
:10932C006D48616E646C657273004A534F4E537492
:10933C007265616D4C6F6748616E646C657200613B
:10934C00707000253031307520005D20002C20001D
:10935C0028293A2000205B00636F6465203D2000C3
:10936C0025690064657461696C73203D20000D0AE9
:10937C00006C6E00666E00636F64650064657461FA
:10938C00696C006E6F6E6500747261636500696E66
:10939C00666F007761726E006572726F7200706139
:1093AC006E696300616C6C0000000000000000003E
:1093BC00BD660D00D5660D00916E0D00CF400D0001
:1093CC0000000000000000006B620D00A1620D00A7
:1093DC00B96D0D0051620D0000000000000000008E
:1093EC0069620D00AF620D0001660D00BD620D00DB
:1093FC00000000000000000049720D003F720D00DB
:10940C0035720D002B720D001F720D0013720D00C2
:10941C0007720D00FF710D00F5710D00EB710D0061
:10942C00E1790D00666630333A3A313A31303031F9
:10943C0000776972696E6700706172736520706184
:10944C00636B657420256400746831006D65736806
:10945C0070756200000000000000000079790D00BA
:10946C0083790D008D790D0097790D00A1790D0090
:10947C00AD790D00B9790D00C5790D00CD790D00D0
:10948C00D7790D00E1790D0000000000000000000C
:10949C004D7C0D004F7C0D00E37D0D00B57D0D0066
:1094AC005A00252B3033643A253032750025592D5E
:1094BC00256D2D25645425483A254D3A2553257A9A
:1094CC000061736374696D650000000000000000AA
:1094DC00000000002D850D0051850D00097F0D0049
:1094EC0033800D00017F0D001F7F0D003D7F0D00AF
:1094FC00577F0D007B7F0D0017800D0019830D0029
:10950C00B9800D0039820D00E97E0D00C1840D007B
:10951C00BD810D00F1800D00EF840D005D800D000C
:10952C00F77E0D0099800D00FD7E0D00597F0D001A
:10953C00F0FFFFFF00000000737F0D000000000033
:10954C00000000007D850D00CD850D00DB850D0034
:10955C00C17A0D0091850D00B3850D009F850D001E
:10956C00C7850D007F850D0083850D000000000070
:10957C000000000091860D00E1860D00EF860D00C5
:10958C00C17A0D00CD860D0093860D00A9860D00C5
:10959C00DB860D00BF860D008D860D0000000000DF
:1095AC000000000003880D00F9870D00EF870D0007
:1095BC00A5870D00E3870D00D7870D00CB870D0025
:1095CC00C3870D00B9870D00AF870D00E1790D0041
:1095DC000000202020202020202020282828282897
:1095EC00202020202020202020202020202020206F
:1095FC0020208810101010101010101010101010C7
:10960C0010100404040404040404040410101010C6
:10961C001010104141414141410101010101010181
:10962C0001010101010101010101010101101010F1
:10963C001010104242424242420202020202020254
:10964C0002020202020202020202020202101010C4
:10965C0010200000000000000000000000000000CE
:10966C0000000000000000000000000000000000EE
:10967C0000000000000000000000000000000000DE
:10968C0000000000000000000000000000000000CE
:10969C0000000000000000000000000000000000BE
:1096AC0000000000000000000000000000000000AE
:1096BC00000000000000000000000000000000009E
:1096CC00000000000000000000000000000000008E
:1096DC00000000000000000000000000000000007E
:1096EC00000000000000000000000000000000006E
:1096FC00000000000000000000000000000000005E
:10970C00000000000000000000000000000000004D
:10971C00000000000000000000000000000000003D
:10972C00000000000000000000000000000000002D
:10973C00000000004300000041460D00F55C0D00E8
:10974C00995D0D00816E0D0029790D00AD7A0D002B
:10975C00317C0D00A17E0D00D57E0D000D880D0015
:10976C0079890D003D8A0D00C18A0D00458B0D00D5
:04977C0000000000E9
:0497800000000000E5
:10978400B38F0D00FD8F0D008E8F0D009400D34B11
:1097940000820000FF00FF00FFFF00FF7F00FF00CA
:1097A40000000000D88F0D00EC930D00D4930D0041
:1097B400CD940D00DD950D0000000000E0960D0035
:1097C40000970D0020970D0000000000000000002D
:1097D400000000000000000040970D0000000000A1
:1097E4000000000000000000000000000000000075
:1097F4000000000000000000000000000000000065
:109804000000000000000000000000000000000054
:0C9814000000000000000000FCE2032047
:10982000FFFFFFFF00000102030405060708090A05
:109830000B0C0D0E0F101112131415161718191A00
:089840001B1C1D1E1F20280047
:049848007856341208
:04000003D000401CCD
:00000001FF
