:02000004080AE8
:1000000000000A08FC3B0A08000006000600050183
:080010000402E80500000000F5
:0400180024380A0876
:1000200009480A4908B5884205D0094A824202D0E7
:10003000121A03F0B3FB0748074A0021121A03F013
:10004000B8FB064808BD00BF00000020443B0A087A
:10005000900000209000002030020020300200209C
:1000600070B502F03DFA074B074C1E46E41AA4088F
:100070000025A54204D056F8253098470135F8E709
:1000800070BD00BF043B0A08403B0A0800F01CB8E2
:1000900008B500F05BF8BDE8084002F0E3B901F0F4
:1000A0004BBD01F051BD0078B0FA80F040097047B7
:1000B00001230370704710B50446006808B101F0D1
:1000C00043FD204610BD000010B5012107200A4C59
:1000D00002F078FA02F0E0F84FF4165102F0D0F88E
:1000E000204600F0D5F8204600F008F901F0A6FB04
:1000F000024B186010BD00BF94000020B400002027
:1001000007B50F4903F0ECF902F04EFE02F060FC77
:1001100003F04EF90B490C4A0B68984201DA08606B
:1001200003E013689842C8BF1060FF230093126871
:100130000023096801F010FD03B05DF804FB00BF67
:1001400000002041000000200800002070B50021C0
:1001500086B0072002F047FA1C4B1B7843B101F030
:100160006DFB1B4B1B68C01A1A4B1B68984224D9A5
:1001700003A801F031FA0024174801F0A8F98442DD
:1001800014DA0398FFF7BCFF05460498FFF7B8FFA1
:1001900006460598FFF7B4FFC0B20090A1B2F3B2D3
:1001A000EAB20D4801F064F90134E5E70A4800F0CD
:1001B000A5F8642001F0DCFC05E00121072002F035
:1001C00012FA01F0A7F906B070BD00BF04000020CC
:1001D000B40000200C0000209400002038B5114C21
:1001E00001F034FB00232360A380A37123814FF629
:1001F000FF730D4D6381012001F022FC2A460B495B
:1002000020460B4C02F078FA02231A469021204631
:1002100000F063F82A462046BDE83840054902F060
:100220006BBA00BFA800002090000020B7000A08A9
:10023000940000203D020A0801F0F8BA10B5044607
:10024000C06808B101F080FC23781BB10021E0797F
:1002500002F0B8F9204610BD38B50446C0680D4616
:1002600008B101F071FCA379062B0CBF0420032018
:10027000684380B2A08001F05FFCE06028B1A288F2
:10028000002103F096FA658038BDA080608038BDFB
:1002900010B504460121C07902F094F90021E079FB
:1002A00002F0A1F90123237010BD38B5037805468B
:1002B0000C461BB10021C07902F084F92B78EC7157
:1002C00053B1A4B22046012102F07CF92046BDE8DA
:1002D0003840002102F087B938BD70B50446164693
:1002E0000025837105700572C5600561FFF7B4FFD5
:1002F00020463146FFF7D9FF204670BDC368002B6A
:1003000000F08E852DE9F0410446837986B0023BEA
:10031000DBB2042B96BF294A322552F82350FFF74F
:100320008BFF2369C01AA842F9D372B6A179A388BA
:100330000229ADF80A30D4F80CE000F072820729E7
:1003400000F06F82062900F03284052900F0AB83AB
:10035000082900F0A883002940F06385184A4FF46B
:100360000006BDF80A309BB2002B00F0958304967E
:10037000BDF80A300EF10305033B9BB2ADF80A301D
:100380009EF80030DBB28DF807309EF80130DBB20A
:100390008DF806309EF80230DBB28DF808309DF8FB
:1003A00007709DF806309DF808001B0243EA0743DA
:1003B000034303938DF805101BE100BF38380A088A
:1003C000B8000020004600BF00BF00BF00BF00BF54
:1003D00000BF00BF00BF00BF00BF00BF00BF00BF25
:1003E00000BF00BF00BF00BF00BF00BF00BF00BF15
:1003F00000BF00BF00BF00BF00BF00BF00BF00BF05
:1004000000BF00BF00BF00BF00BF00BF00BF00BFF4
:1004100000BF00BF00BF00BF00BF00BF00BF00BFE4
:1004200000BF00BF00BF00BF00BF00BF00BF00BFD4
:1004300000BF00BF00BF00BF00BF00BF00BF00BFC4
:1004400000BF00BF00BF00BF00BF00BF00BF00BFB4
:1004500000BF00BF00BF00BF00BF00BF00BF00BFA4
:1004600000BF00BF00BF00BF00BF00BF00BF00BF94
:1004700000BF00BF00BF00BF00BF00BF00BF00BF84
:1004800000BF00BF00BF00BF00BF00BF00BF00BF74
:1004900000BF00BF00BF00BF00BF00BF00BF00BF64
:1004A00000BF00BF00BF00BF00BF00BF00BF00BF54
:1004B00000BF00BF00BF00BF00BF00BF00BF00BF44
:1004C00000BF00BF00BF00BF00BF00BFE3791068DE
:1004D000C3EBC30300EB8307BF8850F823305F836F
:1004E000004600BF00BF00BF00BF00BF00BF00BF8D
:1004F00000BF00BF00BF00BF00BF00BF00BF00BF04
:1005000000BF00BF00BF00BF00BF00BF00BF00BFF3
:1005100000BF00BF00BF00BF00BF00BF00BF00BFE3
:1005200000BF00BF00BF00BF00BF00BF00BF00BFD3
:1005300000BF00BF00BF00BF00BF00BF00BF00BFC3
:1005400000BF00BF00BF00BF00BF00BF00BF00BFB3
:1005500000BF00BF00BF00BF00BF00BF00BF00BFA3
:1005600000BF00BF00BF00BF00BF00BF00BF00BF93
:1005700000BF00BF00BF00BF00BF00BF00BF00BF83
:1005800000BF00BF00BF00BF00BF00BF00BF00BF73
:1005900000BF00BF00BF00BF00BF00BF00BF00BF63
:1005A00000BF00BF00BF00BF00BF00BF00BF00BF53
:1005B00000BF00BF00BF00BF00BF00BF00BF00BF43
:1005C00000BF00BF00BF00BF00BF00BF00BF00BF33
:1005D00000BF00BF00BF00BF00BF049B5B080493C7
:1005E0009DF805300133DBB2172B8DF8053000F292
:1005F000DB82E3791068C3EBC30300EB8307BF889A
:1006000050F823301F830398049B18427FF4DAAE1E
:10061000004600BF00BF00BF00BF00BF00BF00BF5B
:1006200000BF00BF00BF00BF00BF00BF00BF00BFD2
:1006300000BF00BF00BF00BF00BF00BF00BF00BFC2
:1006400000BF00BF00BF00BF00BF00BF00BF00BFB2
:1006500000BF00BF00BF00BF00BF00BF00BF00BFA2
:1006600000BFE3791068C3EBC30300EB8307BF88C7
:1006700050F823305F83004600BF00BF00BF00BFBB
:1006800000BF00BF00BF00BF00BF00BF00BF00BF72
:1006900000BF00BF00BF00BF00BF00BF00BF00BF62
:1006A00000BF00BF00BF00BF00BF00BF00BF00BF52
:1006B00000BF00BF00BF00BF00BF00BF00BF00BF42
:1006C00000BF00BF00BF00BF00BF00BF00BF00BF32
:1006D00000BF00BF00BF00BF00BF00BF00BF00BF22
:1006E00000BF00BF00BF00BF00BF00BF00BF00BF12
:1006F00000BF00BF00BF00BF00BF00BF00BF00BF02
:1007000000BF00BF00BF00BF00BF00BF00BF00BFF1
:1007100000BF00BF00BF00BF00BF00BF00BF00BFE1
:1007200000BF00BF00BF00BF00BF00BF00BF00BFD1
:1007300000BF00BF00BF00BF00BF00BF00BF00BFC1
:1007400000BF00BF00BF00BF00BF00BF00BF00BFB1
:1007500000BF00BF00BF00BF00BF00BF00BF00BFA1
:1007600000BF00BF00BF00BF00BF00BF00BF00BF91
:1007700000BF00BF00BF00BF00BF00BF00BF00BF81
:1007800000BF00BF00BF00BF00BF00BF00BF00BF71
:1007900000BF00BF00BF00BF00BF00BF00BF00BF61
:1007A00000BF00BF00BF00BF00BF00BF00BF00BF51
:1007B00000BF00BF00BF00BF00BF00BF00BF00BF41
:1007C00000BF00BF00BF00BF00BF00BF00BF00BF31
:1007D00000BF00BF00BF00BF00BF00BF00BF00BF21
:1007E00000BF00BF00BF00BF00BF00BF00BF00BF11
:1007F00000BF00BF00BF00BF00BF00BF00BF00BF01
:1008000000BF00BF00BF00BF00BF00BF00BF00BFF0
:1008100000BF00BF00BF00BF00BF00BF00BF00BFE0
:10082000DBE6BDF80A30174A9BB24FF400050026FC
:10083000002B00F031810495BDF80A300EF1030160
:10084000033B9BB2ADF80A309EF80030DBB28DF866
:1008500006309EF80130DBB28DF807309EF802308A
:10086000DBB28DF808309DF806309DF807009DF842
:100870000870000240EA03433B4303938DF8056090
:1008800080E000BFB8000020004600BF00BF00BFEE
:1008900000BF00BF00BF00BF00BF00BF00BF00BF60
:1008A00000BF00BF00BF00BF00BF00BF00BF00BF50
:1008B00000BF00BF00BF00BF00BF00BF00BF00BF40
:1008C00000BF00BF00BF00BF00BF00BF00BF00BF30
:1008D00000BF00BF00BF00BF00BF00BF00BF00BF20
:1008E00000BF00BF00BF00BF00BF00BF00BF00BF10
:1008F00000BF00BF00BF00BF00BF00BF00BF00BF00
:1009000000BF00BF00BF00BF00BF00BF00BF00BFEF
:1009100000BF00BF00BF00BF00BF00BF00BF00BFDF
:1009200000BFE3791068C3EBC30300EB8307BF8804
:1009300050F823305F83004600BF00BF00BF00BFF8
:1009400000BF00BF00BF00BF00BF00BF00BF00BFAF
:1009500000BF00BF00BF00BF00BF00BF00BF00BF9F
:1009600000BF00BF00BF00BF00BF00BF049B5B080B
:1009700004939DF805300133DBB2172B8DF8053059
:1009800000F28380E3791068C3EBC30300EB8307B5
:10099000BF8850F823301F830398049B18427FF4CC
:1009A00073AF004600BF00BF00BF00BF00BF00BF65
:1009B00000BF00BF00BF00BF00BF00BF00BF00BF3F
:1009C00000BF00BF00BF00BF00BFE3791068C3EBEA
:1009D000C30300EB8307BF8850F823305F830046D2
:1009E00000BF00BF00BF00BF00BF00BF00BF00BF0F
:1009F00000BF00BF00BF00BF00BF00BF00BF00BFFF
:100A000000BF00BF00BF00BF00BF00BF00BF00BFEE
:100A100000BF00BF00BF00BF00BF00BF00BF00BFDE
:100A200000BF00BF00BF00BF00BF00BF00BF00BFCE
:100A300000BF00BF00BF00BF00BF00BF00BF00BFBE
:100A400000BF00BF00BF00BF00BF00BF00BF00BFAE
:100A500000BF00BF00BF00BF00BF00BF00BF00BF9E
:100A600000BF00BF00BF00BF00BF00BF00BF00BF8E
:100A700000BF00BF00BF00BF00BF00BF00BF00BF7E
:100A800000BF00BF00BF00BF70E7BDF80A308E4650
:100A90009BB2002B7FF4CFAE62B6FFF7CDFB206197
:100AA00006B0BDE8F0815E4B5E4A184611684FF40F
:100AB00000080027BDF80A2092B2002AECD0CDF839
:100AC0001080BDF80A200EF10305033A92B2ADF88A
:100AD0000A209EF80020D2B28DF806209EF8012050
:100AE000D2B28DF807209EF80220D2B28DF80820ED
:100AF0009DF806209DF807E09DF808C04FEA0E2EED
:100B00004EEA024242EA0C0203928DF80570E27945
:100B10005E68C2EBC20201EB820EBEF804E051F83F
:100B200022200596A2F818E0039E049A164223D0CC
:100B30005A68059E921B4F2AFAD9E279C2EBC2028B
:100B400001EB820EBEF804E051F82220A2F81AE070
:100B5000426805925A68059E921B072AFAD9049AA0
:100B6000520804929DF805200132D2B2172A8DF85E
:100B70000520CCD9AE469DE75A68059E921B182ADF
:100B8000FAD9E279C2EBC20201EB820EBEF804E0B0
:100B900051F82220A2F81AE0426805925A68059E90
:100BA000921B452AFAD9DAE7AE46FFF7DABB1D4AAF
:100BB0004FF000450026BDF80A309BB2002B3FF4F1
:100BC0006BAF0495BDF80A300EF10401043B9BB2F3
:100BD000ADF80A309EF80030DBB28DF807309EF891
:100BE0000130DBB28DF806309EF80230DBB28DF8B2
:100BF00008309EF80330DBB28DF809309DF80730DD
:100C00009DF806709DF808E03F049DF8090047EA4A
:100C10000363034343EA0E2303938DF805607EE0EC
:100C2000001000E0B8000020004600BF00BF00BF79
:100C300000BF00BF00BF00BF00BF00BF00BF00BFBC
:100C400000BF00BF00BF00BF00BF00BF00BF00BFAC
:100C500000BF00BF00BF00BF00BF00BF00BF00BF9C
:100C600000BF00BF00BF00BF00BF00BF00BF00BF8C
:100C700000BF00BF00BF00BF00BF00BF00BF00BF7C
:100C800000BF00BF00BF00BF00BF00BF00BF00BF6C
:100C900000BF00BF00BFE3791068C3EBC30300EBE4
:100CA0008307BF8850F823305F83004600BF00BF32
:100CB00000BF00BF00BF00BF00BF00BF00BF00BF3C
:100CC00000BF00BF00BF00BF00BF00BF00BF00BF2C
:100CD00000BF00BF00BF00BF00BF00BF00BF00BF1C
:100CE00000BF00BF00BF00BF00BF00BF00BF00BF0C
:100CF00000BF00BF00BF00BF00BF00BF00BF00BFFC
:100D000000BF00BF00BF00BF049B5B0804939DF8B9
:100D100005300133DBB21F2B8DF805307ED8E37927
:100D20001068C3EBC30300EB8307BF8850F8233080
:100D30001F830398049B18427FF476AF004600BFE0
:100D400000BF00BF00BF00BF00BF00BF00BF00BFAB
:100D500000BF00BF00BF00BF00BF00BF00BF00BF9B
:100D600000BF00BFE3791068C3EBC30300EB830748
:100D7000BF8850F823305F83004600BF00BF00BF2C
:100D800000BF00BF00BF00BF00BF00BF00BF00BF6B
:100D900000BF00BF00BF00BF00BF00BF00BF00BF5B
:100DA00000BF00BF00BF00BF00BF00BF00BF00BF4B
:100DB00000BF00BF00BF00BF00BF00BF00BF00BF3B
:100DC00000BF00BF00BF00BF00BF00BF00BF00BF2B
:100DD00000BF00BF00BF00BF00BF00BF00BF00BF1B
:100DE00000BF00BF00BF00BF00BF00BF00BF00BF0B
:100DF00000BF00BF00BF00BF00BF00BF00BF00BFFB
:100E000000BF00BF00BF00BF00BF00BF00BF00BFEA
:100E100000BF00BF00BF00BF00BF75E78E46CAE637
:100E20007047032900F02E811E4A4FF4000500266A
:100E3000BDF80A309BB2002B3FF42EAE0495BDF8EE
:100E40000A30E079033B9BB2ADF80A309EF80030DF
:100E50000EF10301DBB28DF807309EF80130C0EBD4
:100E6000C000DBB28DF808309EF80230D2F800E006
:100E7000DBB28DF806309DF807709DF808300EEB58
:100E8000800C1B0243EA07439DF80670BCF804C0BF
:100E90005EF820003B4303938DF80560A0F81AC06C
:100EA0007DE000BFB8000020049B5B08049300466F
:100EB00000BF00BF00BF00BF00BF00BF00BF00BF3A
:100EC00000BF00BF00BF00BF00BF00BF00BF00BF2A
:100ED00000BF00BF00BF00BF00BF00BF00BF00BF1A
:100EE00000BF00BF00BF00BF00BF00BF00BF00BF0A
:100EF00000BF00BF00BF00BF00BF00BF00BF00BFFA
:100F000000BF00BF00BF00BF00BF00BF00BF00BFE9
:100F100000BF00BF00BF00BF00BF00BF00BF00BFD9
:100F200000BF00BF00BF00BF00BF00BF00BF00BFC9
:100F300000BF00BFE07917689DF80530C0EBC00026
:100F400007EB800EBEF804E057F820000133DBB257
:100F50008DF80530A0F818E0004600BF00BF00BFC4
:100F600000BF00BF00BF00BF00BF00BF00BF00BF89
:100F700000BF00BF00BF00BF00BF00BF00BF00BF79
:100F800000BF9DF80530182B7AD0E3791068C3EBC9
:100F9000C30300EB8307BF8850F823305F830398B7
:100FA000049B184280D1004600BF00BF00BF00BFB5
:100FB00000BF00BF00BF00BF00BF00BF00BF00BF39
:100FC00000BF00BF00BF00BFE3791068C3EBC303DD
:100FD00000EB8307BF8850F823301F839DF805304E
:100FE0000133DBB28DF80530049B5B0804930046A7
:100FF00000BF00BF00BF00BF00BF00BF00BF00BFF9
:1010000000BF00BF00BF00BF00BF00BF00BF00BFE8
:1010100000BF00BF00BF00BF00BF00BF00BF00BFD8
:1010200000BF00BF00BF00BF00BF00BF00BF00BFC8
:1010300000BF00BF00BF00BF00BF00BF00BF00BFB8
:1010400000BF00BF00BF00BF00BF00BF00BF00BFA8
:1010500000BF00BF00BF00BF00BF00BF00BF00BF98
:1010600000BF00BF00BF00BF00BF00BF00BF00BF88
:1010700000BF00BF00BF00BF9DF80530182B84D112
:101080008E46D5E6174A4FF400050026BDF80A3013
:101090009BB2002B3FF400AD0495BDF80A300EF171
:1010A0000301033B9BB2ADF80A309EF80030DBB27F
:1010B0008DF807309EF80130DBB28DF806309EF8CF
:1010C0000230DBB28DF808309DF807709DF80630CD
:1010D0009DF808001B0243EA0743034303938DF87E
:1010E0000560E0E0B8000020004600BF00BF00BF80
:1010F00000BF00BF00BF00BF00BF00BF00BF00BFF8
:1011000000BF00BF00BF00BF00BF00BF00BF00BFE7
:1011100000BF00BF00BF00BF00BF00BF00BF00BFD7
:1011200000BF00BF00BF00BF00BF00BF00BF00BFC7
:1011300000BF00BF00BF00BF00BF00BF00BF00BFB7
:1011400000BF00BF00BF00BF00BF00BF00BF00BFA7
:1011500000BF00BF00BF00BF00BF00BF00BF00BF97
:1011600000BF00BF00BF00BF00BF00BF00BF00BF87
:1011700000BF00BF00BF00BF00BF00BF00BF00BF77
:1011800000BF00BF00BF00BF00BF00BF00BF00BF67
:1011900000BF00BF00BF00BF00BF00BF00BF00BF57
:1011A00000BF00BF00BF00BF00BF00BF00BF00BF47
:1011B00000BF00BF00BF00BF00BF00BF00BF00BF37
:1011C00000BF00BF00BF00BF00BF00BF00BF00BF27
:1011D00000BF00BF00BF00BF00BF00BF00BF00BF17
:1011E00000BF00BF00BF00BF00BF00BF00BF00BF07
:1011F00000BF00BF00BF00BF00BF00BF00BF00BFF7
:1012000000BF00BF00BF00BF00BFE3791068C3EBA1
:10121000C30300EB8307BF8850F823305F83004689
:1012200000BF00BF00BF00BF00BF00BF00BF00BFC6
:1012300000BF00BF00BF00BF00BF00BF00BF00BFB6
:1012400000BF00BF00BF00BF00BF00BF00BF00BFA6
:1012500000BF00BF00BF00BF00BF00BF00BF00BF96
:1012600000BF00BF00BF00BF00BF00BF00BF00BF86
:1012700000BF00BF00BF00BF00BF00BF00BF00BF76
:1012800000BF00BF00BF00BF00BF00BF00BF049B86
:101290005B0804939DF805300133DBB2172B8DF802
:1012A000053000F2E380E3791068C3EBC30300EB81
:1012B0008307BF8850F823301F830398049B18428C
:1012C0007FF412AF004600BF00BF00BF00BF00BFE9
:1012D00000BF00BF00BF00BF00BF00BF00BF00BF16
:1012E00000BF00BF00BF00BF00BF00BF00BF00BF06
:1012F00000BF00BF00BF00BF00BF00BF00BF00BFF6
:1013000000BF00BF00BF00BF00BF00BF00BF00BFE5
:1013100000BF00BF00BF00BF00BF00BF00BF00BFD5
:1013200000BF00BF00BF00BF00BF00BF00BF00BFC5
:1013300000BF00BF00BF00BF00BF00BF00BF00BFB5
:1013400000BF00BF00BFE3791068C3EBC30300EB2D
:101350008307BF8850F823305F83004600BF00BF7B
:1013600000BF00BF00BF00BF00BF00BF00BF00BF85
:1013700000BF00BF00BF00BF00BF00BF00BF00BF75
:1013800000BF00BF00BF00BF00BF00BF00BF00BF65
:1013900000BF00BF00BF00BF00BF00BF00BF00BF55
:1013A00000BF00BF00BF00BF00BF00BF00BF00BF45
:1013B00000BF00BF00BF00BF00BF00BF00BF00BF35
:1013C00000BF00BF00BF00BF00BF00BF00BF00BF25
:1013D00000BF00BF00BF00BF00BF00BF00BF00BF15
:1013E00000BF00BF00BF00BF00BF00BF00BF00BF05
:1013F00000BF00BF00BF00BF00BF00BF00BF00BFF5
:1014000000BF00BF00BF00BF00BF00BF00BF00BFE4
:1014100000BF00BF00BF00BF00BF00BF00BF00BFD4
:1014200000BF00BF00BF00BF00BF00BF00BF00BFC4
:1014300000BF00BF00BF00BF00BF00BF00BF00BFB4
:1014400000BF00BF00BF00BF00BF00BF00BF00BFA4
:1014500000BF00BF00BF00BF00BF00BF00BF00BF94
:1014600000BF00BF00BF00BF00BF10E78E460DE603
:10147000F0B544889DF814508C4227D9047A44B1C1
:10148000624363436C43C2F30722C3F30723C4F3ED
:1014900007258779C66801EB4101082F06EB010497
:1014A00011D80120B84010F4D27F08D1C0060AD567
:1014B000FF2A08BFFE2272546570A370F0BD7354FA
:1014C0006270A570F0BD72546370A570F0BD408865
:1014D0007047000008B500F0B9F900F0B7F9014B0A
:1014E000186008BDB8000020F8B587B238460E462F
:1014F000002401F091F8012000F03AFB2546B442A7
:1015000005DA384601F088F801340544F7E795FB21
:10151000F6F0F8BD38B500F0BFFE184900F081FCC8
:1015200001210D20FFF7E0FF012105460E20FFF706
:10153000DBFF044601210F20FFF7D6FF104B1A688E
:101540009542B8BF1D600F4B1A689542C8BF1D6019
:101550000D4B1A689442B8BF1C600C4B1A68944239
:10156000C8BF1C600A4B1A689042B8BF1860094B8C
:101570001A689042C8BF186038BD00BF4C380A08CE
:101580002000002024000020100000201400002073
:10159000180000201C0000202DE9F04107460C46F1
:1015A00015462AB9BDE8F0410368C9B29B681847DF
:1015B000002907DA0A2A05D12D2100F023FC614217
:1015C000064601E021460026EAB2384600F033FC28
:1015D0003044BDE8F08100002DE9F74F04461421A6
:1015E0000D20FFF781FF142181460E20FFF77CFFBD
:1015F000142180460F20FFF777FF0746DFF8E8A1A8
:1016000000F04AFE6B4D6C4900F0F8FBDFF8DCB1EE
:1016100000F042FE0A22DAF80010FFF7BDFF00F0EA
:101620003BFE294600F0EAFB00F036FE0A22DBF81A
:101630000010FFF7B1FF00F02FFE604900F0DEFB65
:1016400000F02AFE5E4B0A221968FFF7A5FF00F0A2
:1016500023FE294600F0D2FB00F01EFE594B0A2261
:101660001968FFF799FF00F017FE574900F0C6FB15
:1016700000F012FE554B0A221968FFF78DFF00F0AB
:101680000BFE294600F0BAFB00F006FE504B0A2282
:101690001968FFF781FF4F4D00F0FEFD00F0B5FB2C
:1016A00000F0FAFD0A224946FFF776FF00F0F4FD4C
:1016B000294600F0A3FB00F0EFFD0A224146FFF7A8
:1016C0006BFF00F0E9FD2946434D00F097FB4FF416
:1016D0007A7600F0E1FD39460A22FFF75DFF0096B9
:1016E0002B46DBF80020DAF80010484600F034FA08
:1016F000344A3349009681462B46126809684046B1
:1017000000F02AFA324A314900962B468046126888
:101710000968384600F020FA0546484601F032FBD9
:1017200000222E4B01F0BEFC01F08AFE0746404627
:1017300001F028FB0022294B01F0B4FC01F080FEEF
:101740000646284601F01EFB244B002201F0AAFCAD
:1017500001F076FE0546DFF8988000F09DFD2049F7
:1017600000F04CFB00F098FD0222394600F03CFCF2
:1017700000F092FD414600F041FB00F08DFD022299
:10178000314600F031FC00F087FD414600F036FBA9
:1017900000F082FD0222294600F026FC00F07CFDCC
:1017A000104900F03EFB27606660A56003B0BDE80D
:1017B000F08F00BF66380A0856380A0868380A08E9
:1017C00010000020140000206E380A0818000020C5
:1017D0001C0000207A380A0818FCFFFF00408F40E8
:1017E00074380A087D380A082000002024000020F0
:1017F00079380A0800F02AB800F028B808B5024B7A
:101800001B685B6C019308BDD001060808B5024B4C
:101810001B689B6C019308BDD001060808B5024BFC
:101820001B685B68019308BD9C01060808B5024B64
:101830001B681B69019308BD9C01060808B5024B93
:101840001B685B69019308BD9C01060808B5024B43
:101850001B681B68019308BDB001060808B5024B60
:101860001B685B68019308BDB001060808B5024B10
:101870001B689B68019308BDB001060808B5024BC0
:101880001B68DB68019308BDB001060808B5024B70
:101890001B681B69019308BDB001060808B5024B1F
:1018A0001B681B6B019308BDB001060808B5024B0D
:1018B0001B681B6E019308BDAC01060808B5024BFE
:1018C0001B685B6E019308BDAC01060808B5024BAE
:1018D0001B689B6E019308BDAC01060808B5024B5E
:1018E0001B68DB6E019308BDAC01060808B5024B0E
:1018F0001B681B6F019308BDAC01060808B5024BBD
:101900001B685B6F019308BDAC01060808B5034B6B
:101910001B68D3F88030019308BD0000AC010608B5
:1019200008B5024B1B68DB69019308BDB4010608CA
:1019300008B5024B1B681B6A019308BDB401060879
:1019400008B5024B1B689B69019308BDC4010608DA
:1019500008B5024B1B685B6A019308BDC401060809
:1019600008B5024B1B689B6A019308BDC4010608B9
:1019700008B5024B1B68DB6A019308BDC401060869
:1019800008B5024B1B681B6B019308BDC401060818
:1019900008B5024B1B685B6B019308BDC4010608C8
:1019A00008B5024B1B689B6B019308BDC401060878
:1019B00008B5024B1B681B6C019308BDC4010608E7
:1019C00008B5024B1B681B68019308BDD8010608C7
:1019D00008B5024B1B685B68019308BDD801060877
:1019E00008B5024B1B681B69019308BDD8010608A6
:1019F00008B5024B1B685B69019308BDD801060856
:101A000008B5024B1B689B69019308BDD801060805
:101A100008B5024B1B68DB69019308BDD8010608B5
:101A200008B5024B1B681B6A019308BDD801060864
:101A300008B5024B1B689B6C019308BDC0010608EA
:101A400008B5024B1B685B68019308BDA40106083A
:101A500008B5024B1B685B69019308BDA401060829
:101A600008B5034B1B68D3F89030019308BD000004
:101A7000A401060808B5034B1B68D3F89C300193FA
:101A800008BD0000A401060808B5024B1B68DB6B0B
:101A9000019308BDCC01060808B5024B1B685B68C2
:101AA000019308BDC801060808B5024B1B689B6876
:101AB000019308BDC801060808B5024B1B68DB6826
:101AC000019308BDC801060808B5024B1B681B69D5
:101AD000019308BDC801060808B5024B1B685B6985
:101AE000019308BDC801060808B5024B1B689B6935
:101AF000019308BDC801060808B5024B1B68DB69E5
:101B0000019308BDC801060808B5024B1B681B6A93
:101B1000019308BDC801060808B5024B1B681B6B82
:101B2000019308BDC801060808B5024B1B685B6B32
:101B3000019308BDC801060808B5024B1B681B6865
:101B4000019308BDA001060808B5024B1B685B683D
:101B5000019308BDA00106088A4230B507D0039D55
:101B6000441AED1A6C43521A94FBF2F4E01830BD9B
:101B70000021FFF76DBF10B58368044613B103223F
:101B800001469847204610BD7047F8B506461546F1
:101B90000C468F18BC4206D0336814F8011B9B68B2
:101BA00030469847F6E72846F8BD0022007CFFF74C
:101BB0007DBE0021007CFFF781BE0021007CFFF785
:101BC00085BE0021007CFFF789BE0021007CFFF765
:101BD0008DBE10B50446142100F093FD204610BDC3
:101BE00010B50446002363604FF47A73A360044B7E
:101BF0002174084623601146FFF788FE204610BD79
:101C000088380A080021007CFFF778BE704710B5BD
:101C10000446182100F075FD204610BDF8B50F46AA
:101C200000F10806051D002416F8011D0A22384699
:101C300000F001F9AE42044407D0002CF4D02E216C
:101C4000384600F0DFF80444EEE72046F8BD000017
:101C500010B50446044B112240F8043B002101F06A
:101C6000A8FD204610BD00BFB0380A080346074A49
:101C700010B543F8042B01F1100251F8044B9142C6
:101C800043F8044BF9D10A781A7010BDB0380A082D
:101C9000024A41600260042202757047B0380A08A7
:101CA00010B59DF8084044EA032343EA024242EAA1
:101CB000016104234160037510BD000037B5044D78
:101CC00005609DF818500095FFF7EAFF03B030BD9E
:101CD000B0380A08014A024B1A60704732390A08C4
:101CE000BC00002000231A464068FFF7D5BE002242
:101CF00002214068FFF7E0BE002211464068FFF76E
:101D0000D3BE002211464068FFF7DEBE00231A460C
:101D100019464068FFF7E0BE00231A46194640689E
:101D2000FFF7E2BE002281F001014068FFF7E4BE48
:101D300000224068FFF7F0BE002211464068FFF71E
:101D4000F3BE002211464068FFF7DEBE70B51646AE
:101D50008EB0044608A8FFF77BFF1122002103A8DC
:101D600001F027FD304601F055FD00250A4B009596
:101D700081B25B6803AA3046FFF75AFE20B12946BC
:101D80002046FFF785FF03E003A92046FFF76EFF1B
:101D900020460EB070BD00BF38010020024B034A40
:101DA0001A6000225A607047C0000020A4390A0857
:101DB000F8B506460D468F180024BD420CD0336896
:101DC00015F8011B9B6830469847002801DB044446
:101DD000F3E7002C08BF04462046F8BD70B5054661
:101DE0000C46084649B101F015FD2B680246214614
:101DF0002846BDE87040DB68184770BD08B5FFF79E
:101E0000EDFF08BD03689B68184738B50D210546EE
:101E1000FFF7F8FF0A2104462846FFF7F3FF2044A6
:101E200038BD38B50546FFF7D9FF04462846FFF709
:101E3000ECFF204438BD012A98BF0A2230B50B467A
:101E40008BB000218DF824100DF12304B3FBF2F5C3
:101E500005FB1233DBB2092B94BF30333733DBB2CF
:101E6000214604F801392B46002DEFD1FFF7B6FFCC
:101E70000BB030BD2DE9F047194680461046174695
:101E80001E469DF8205001F07DFA08B14D4912E040
:101E900026F000444FF0FF324B4B3846214601F00C
:101EA00071FA68B94FF0FF32474B3846214601F0CE
:101EB0004BFA28B945494046FFF790FFBDE8F08747
:101EC0004FF06042424B3846314601F051FA08B1BA
:101ED0004049F0E74FF060423F4B3846314601F051
:101EE00029FA0028F4D1002200233846314601F0B7
:101EF00021FA38B12D214046FFF784FF06F1004654
:101F0000044600E0044635494FF0000900205FFA1E
:101F100089F39D4206D90022314B01F0C3F809F143
:101F20000109F4E73A46334600F0E0FD0F46064665
:101F300001F066FA0A22014681464046FFF77BFF20
:101F40000444E5B3484600F00DFF02460B46304618
:101F5000394600F0C9FD06460F4640462149FFF7C5
:101F60003DFF044400221E4B3046394600F070FF0E
:101F700006460F4601F01CFAB0F1000A07DA2D21DF
:101F80004046FFF73FFFCAF10001814602E051469B
:101F90004FF000090A224046FFF74DFF4844044431
:101FA000504600F0EFFE02460B463046394600F040
:101FB0009BFD013D15F0FF0506460F46D2D1204698
:101FC000BDE8F087D0390A08FFFFEF7FDA390A0849
:101FD000FFFFEF41D4390A08FFFFEFC10000E03FE7
:101FE00000002440D8390A0837B50546144608468B
:101FF00000F0DAFEE4B2024600940B462846FFF7F2
:1020000039FF03B030BD10B50446FFF7B4FD2046DC
:1020100010BD0000034800238360034A034900F019
:102020006BBB00BFC80000209000002007200A08FA
:1020300070B504460E46002540F8085FFFF7DEFB4A
:1020400030462670FFF76CFC6560204670BD007856
:10205000FFF76EBC4FF6FF7310B5084C00202060F0
:10206000A080A07120816381FFF7EAFC2046BDE8D3
:102070001040034A034900F03FBB00BFD8000020D6
:1020800090000020B7000A08024B1A68024B1A6041
:10209000704700BF28000020E40000207047417412
:1020A000704708B5007CFFF783FC20EAE07008BDAC
:1020B00008B5007CFFF754FC20EAE07008BD08B5C5
:1020C000007CFFF75DFC30EA200028BF4FF0FF30B6
:1020D00008BD08B5007CFFF74BFC30EA200028BFA4
:1020E0004FF0FF3008BD007CFFF752BC10B504462E
:1020F000142100F006FB204610BD70B5457C044657
:102100000E4625B9007CFFF753FC002805DD31465B
:10211000207CBDE87040FFF71BBC284670BD000066
:1021200010B5044608461146002262604FF47A72E8
:10213000A260054A20742260012262741A46FFF7E9
:10214000FFFB204610BD00BF103A0A08007CFFF7D5
:1021500027BC0000F8B5194C25684DB98420FDF75F
:102160009EFF064618B18422294601F022FB266014
:10217000134D2E684EB98420FDF791FF074618B124
:102180008422314601F015FB2F600E4F396811F0A3
:10219000010611D13846FDF786FF68B12268314645
:1021A0002B680948FFF7BCFF3846FDF781FF074A57
:1021B0000749054800F0A0FA0348F8BD04010020D3
:1021C000FC00002000010020E8000020900000201A
:1021D0009D200A0841747047704708B50021007CB3
:1021E000FFF70EFC30EA200028BF4FF0FF3008BD9B
:1021F00008B50121007CFFF703FC30EA200028BF6E
:102200004FF0FF3008BD08B5007CFFF7F1FB20EA76
:10221000E07008BD08B5007CFFF7E2FB20EAE07043
:1022200008BD007CFFF7FCBB10B50446142100F08C
:1022300068FA204610BD38B50446007C0D46FFF70D
:10224000D7FB002801DC607C28B12946207CFFF701
:10225000DFFB20EAE07038BD10B504460023636060
:102260004FF47A73A360054B084623600123217461
:1022700063741146FFF7A4FB204610BD403A0A08DC
:102280000022007CFFF7A4BB10B5044614220021F5
:1022900001F08FFA204610BD30B50E4D87B001A871
:1022A000FFF7F2FF296811F0010410D12846FDF76D
:1022B000FAFE60B101AA21460748FFF7CDFF284684
:1022C000FDF7F6FE054A0649034800F015FA0248F4
:1022D00007B030BD08010020100100209000002050
:1022E000D9210A0810B504461422002101F061FA30
:1022F000204610BD10B50E4C86B001A8FFF7F2FFC6
:102300002368DB0710D42046FDF7CDFE60B101AA9B
:1023100001210848FFF7A0FF2046FDF7C9FE064A45
:102320000649044800F0E8F9024806B010BD00BFB5
:102330000C0100202401002090000020D9210A086F
:10234000002211464068FFF7BFBBF0B5164689B0C2
:1023500011220F460446002103A801F02AFA304654
:1023600001F058FA0025009581B27B6803AA304637
:10237000FFF75EFB20B129462046FFF789FC03E00A
:1023800003A92046FFF772FC204609B0F0BD0022E9
:1023900011464068FFF7B8BB002211464068FFF7BE
:1023A000C3BB00224068FFF7B7BB002281F00101E8
:1023B0004068FFF7A1BB00231A4619464068FFF7A3
:1023C00093BB00231A4619464068FFF785BB0022DD
:1023D00011464068FFF768BB002202214068FFF702
:1023E0006BBB00231A464068FFF756BB024B042222
:1023F0005A60024A1A60704738010020703A0A0891
:1024000008B5144B33B1FFF747FF03681B699847C2
:10241000002816DC104B33B1FFF79CFE03681B69E4
:102420009847002810DC0D4B0BB1AFF300800C4B2C
:102430007BB1FFF75FFF03681B699847002806DC44
:1024400008BDAFF30080E5E7AFF30080EBE7AFF343
:10245000008008BD00000000000000000000000037
:102460000000000008B5FFF7CBFFFFF7E7F9014BCD
:10247000186008BD580100200248034A0349121A97
:1024800001F08CB90040024004400240403B0A0881
:1024900007B5002300931A466FF07701FFF7EAFAB9
:1024A00003B05DF804FB000007B543880A2B08D091
:1024B000502B09D1094B1B683BB103B05DF804EB0D
:1024C0001847FFF7E5FF06E0002300931A466FF078
:1024D0007701FFF7CFFA03B05DF804FB400100205D
:1024E00038B5104C104D2368AB42104B0CBF012285
:1024F00000221A7002D0FFF7BFFF2560FFF78EF9A8
:10250000044601F05FF90A4B13B12046AFF3008097
:1025100000210748FFF7B8FABDE838400021054818
:10252000FFF79EBA004002401E1C279A440100207B
:1025300000000000A9240A0810B50446806808B10C
:10254000FFF764F9204610BD70B51A4E0446316895
:1025500011F001050FD13046FDF7A5FD58B1294610
:102560001548FFF765FD3046FDF7A2FD134A1449F3
:10257000114800F0C1F81048FFF769FD28B1A4F137
:102580000D03022B01D8002070BD00F077F8FFF793
:1025900039FB08B1012CF6D9FFF7DCFDFFF7D6FDBA
:1025A00018B1A4F11203012BEDD9172C8CBF002018
:1025B000012070BD480100204C0100209000002047
:1025C00039250A08172838B504460D460AD8FF29C8
:1025D00008D0FFF7B9FF28B129462046BDE83840AA
:1025E000FFF744B938BD38B504460D46FFF746F944
:1025F000FF2810D0062804D84D2323FA00F0C30783
:1026000009D42046FFF7A0FF28B129462046BDE89F
:102610003840FFF73BB938BD10B5044609289CBFC8
:102620000A34A4B22046FFF78FFF50B103212046A1
:10263000FFF714F9032804D12046BDE81040FFF746
:102640002DB9002010BD000070B5044614252A469F
:10265000094E002101F0ADF8258020253146A56006
:102660002561284600F067F831466060284600F092
:1026700062F8E060204670BD9C3A0A0830B50E4D05
:1026800087B0296811F0010413D12846FDF70BFD2E
:1026900078B101A8FFF7D8FF01AA21460748FFF744
:1026A0009FFA2846FDF704FD054A0649034800F055
:1026B00023F8024807B030BD5C0100206001002013
:1026C00090000020891B0A0813B5084C00231A4605
:1026D000194600932046FFF7F1FA2046044A0549BF
:1026E00002B0BDE8104000F007B800BF7401002040
:1026F000900000200D1C0A080B460146184601F008
:102700003FB8FDF7CEBC0000024B1868BFF35F8FE7
:10271000704700BF8C01002010B5002814BF04468C
:1027200001242046FFF708FA20B9FFF7EDFF08B1B2
:102730008047F6E710BDFFF7EFBF0000244B1A6893
:10274000D0075CBF01221A60224B1A68D1075CBF18
:1027500001221A60204B1A68D2075CBF01221A605E
:102760001E4B1A68D0075CBF01221A601C4B1A6806
:10277000D1075CBF01221A601A4B1A68D2075CBFEE
:1027800001221A60184B1A68D0075CBF01221A6038
:10279000164B1A68D1075CBF01221A60144B1A68E5
:1027A000D2075CBF01221A60124B1A68D0075CBFC7
:1027B00001221A60104B1A68D1075CBF01221A600F
:1027C0000E4B1A68D2075CBF01221A60704700BF27
:1027D000BC010020B8010020B4010020B00100209D
:1027E000AC010020A8010020A4010020A0010020CD
:1027F0009C010020980100209401002090010020FD
:10280000184B1A68D1075CBF01221A60164B1A6870
:10281000D2075CBF01221A60144B1A68D0075CBF54
:1028200001221A60124B1A68D1075CBF01221A609C
:10283000104B1A68D2075CBF01221A600E4B1A684F
:10284000D0075CBF01221A600C4B1A68D1075CBF2D
:1028500001221A600A4B1A68D2075CBF01221A6073
:10286000704700BFDC010020D8010020D401002007
:10287000D0010020CC010020C8010020C4010020AC
:10288000C0010020184B1A68D1075CBF01221A60F2
:10289000164B1A68D2075CBF01221A60144B1A68E3
:1028A000D0075CBF01221A60124B1A68D1075CBFC7
:1028B00001221A60104B1A68D2075CBF01221A600D
:1028C0000E4B1A68D0075CBF01221A600C4B1A68C5
:1028D000D1075CBF01221A600A4B1A68D2075CBF9D
:1028E00001221A60704700BFFC010020F80100209F
:1028F000F4010020F0010020EC010020E80100209C
:10290000E4010020E0010020244B1A68D0075CBFDE
:1029100001221A60224B1A68D1075CBF01221A609B
:10292000204B1A68D2075CBF01221A601E4B1A683E
:10293000D0075CBF01221A601C4B1A68D1075CBF2C
:1029400001221A601A4B1A68D2075CBF01221A6072
:10295000184B1A68D0075CBF01221A60164B1A6820
:10296000D1075CBF01221A60144B1A68D2075CBF02
:1029700001221A60124B1A68D0075CBF01221A604C
:10298000104B1A68D1075CBF01221A600E4B1A68FF
:10299000D2075CBF01221A60704700BF2C020020E2
:1029A0002802002024020020200200201C02002017
:1029B0001802002014020020100200200C02002047
:1029C0000802002004020020000200200000000095
:1029D000C1F30A522DE9F843A2F2FF36132E0B463B
:1029E00004460D46884607461CDC002E3FDB3A4A6B
:1029F000864642FA06F901EA0902024317D034A3D7
:102A0000D3E9002300F072F80022002300F0B0FCAC
:102A100020B1002D40DB28EA090500273846294669
:102A2000BDE8F883332E06DDB6F5806F2FD0204643
:102A30001946BDE8F883A2F213424FF0FF3929FA94
:102A400002F910EA090FF2D021A3D3E9002300F024
:102A50004DF80022002300F08BFC0028DED0002D72
:102A600020DB454627EA090738462946D8E718A358
:102A7000D3E9002300F03AF80022002300F078FCAC
:102A80000028CBD0002D18DB00273D46C6E70246C4
:102A90000B4600F02BF8CCE74FF4801343FA06F610
:102AA000B044B8E7142E10D00123C6F1340603FA5F
:102AB00006F6371928BF9844D3E725F00042074BA4
:102AC000224318BF1D460027A8E705F10108C8E703
:102AD0009C7500883CE4377EFFFF0F000000F0BFCC
:102AE00081F0004102E000BF83F0004330B54FEABF
:102AF00041044FEA430594EA050F08BF90EA020F2C
:102B00001FBF54EA000C55EA020C7FEA645C7FEABE
:102B1000655C00F0E2804FEA5454D4EB5555B8BFE1
:102B20006D420CDD2C4480EA020281EA030382EA52
:102B3000000083EA010180EA020281EA0303362DE4
:102B400088BF30BD11F0004F4FEA01314FF4801CB7
:102B50004CEA113102D0404261EB410113F0004FC9
:102B60004FEA03334CEA133302D0524263EB430380
:102B700094EA050F00F0A780A4F10104D5F1200E1E
:102B80000DDB02FA0EFC22FA05F2801841F1000179
:102B900003FA0EF2801843FA05F359410EE0A5F14D
:102BA00020050EF1200E012A03FA0EFC28BF4CF07E
:102BB000020C43FA05F3C01851EBE37101F0004534
:102BC00007D54FF0000EDCF1000C7EEB00006EEB41
:102BD0000101B1F5801F1BD3B1F5001F0CD34908CB
:102BE0005FEA30004FEA3C0C04F101044FEA445222
:102BF00012F5800F80F09A80BCF1004F08BF5FEAA9
:102C0000500C50F1000041EB045141EA050130BD88
:102C10005FEA4C0C404141EB010111F4801FA4F12B
:102C20000104E9D191F0000F04BF01460020B1FA80
:102C300081F308BF2033A3F10B03B3F120020CDAB8
:102C40000C3208DD02F1140CC2F10C0201FA0CF096
:102C500021FA02F10CE002F11402D8BFC2F1200CFB
:102C600001FA02F120FA0CFCDCBF41EA0C019040B1
:102C7000E41AA2BF01EB0451294330BD6FEA0404FA
:102C80001F3C1CDA0C340EDC04F11404C4F12002E5
:102C900020FA04F001FA02F340EA030021FA04F3F7
:102CA00045EA030130BDC4F10C04C4F1200220FA4E
:102CB00002F001FA04F340EA0300294630BD21FA8C
:102CC00004F0294630BD94F0000F83F4801306BF52
:102CD00081F480110134013D4EE77FEA645C18BF46
:102CE0007FEA655C29D094EA050F08BF90EA020FDD
:102CF00005D054EA000C04BF1946104630BD91EAD5
:102D0000030F1EBF0021002030BD5FEA545C05D1D7
:102D10004000494128BF41F0004130BD14F5800416
:102D20003CBF01F5801130BD01F0004545F0FE418A
:102D300041F470014FF0000030BD7FEA645C1ABFBF
:102D4000194610467FEA655C1CBF0B46024650EAF6
:102D5000013406BF52EA033591EA030F41F4002122
:102D600030BD00BF90F0000F04BF0021704730B5A8
:102D70004FF4806404F132044FF000054FF000017D
:102D800050E700BF90F0000F04BF0021704730B53E
:102D90004FF4806404F1320410F0004548BF404213
:102DA0004FF000013EE700BF42004FEAE2014FEA68
:102DB00031014FEA02701FBF12F07F4393F07F4F43
:102DC00081F06051704792F0000F14BF93F07F4F75
:102DD000704730B54FF4607401F0004521F00041B8
:102DE00020E700BF50EA010208BF704730B54FF03E
:102DF00000050AE050EA010208BF704730B511F043
:102E0000004502D5404261EB41014FF4806404F17A
:102E100032045FEA915C3FF4DCAE4FF003025FEAFC
:102E2000DC0C18BF03325FEADC0C18BF033202EB84
:102E3000DC02C2F1200300FA03FC20FA02F001FADE
:102E400003FE40EA0E0021FA02F11444C1E600BF7D
:102E500070B54FF0FF0C4CF4E06C1CEA11541DBF30
:102E60001CEA135594EA0C0F95EA0C0F00F0DEF8FB
:102E70002C4481EA030621EA4C5123EA4C5350EAE0
:102E8000013518BF52EA033541F4801143F4801331
:102E900038D0A0FB02CE4FF00005E1FB02E506F0C2
:102EA0000042E0FB03E54FF00006E1FB03569CF017
:102EB000000F18BF4EF0010EA4F1FF04B6F5007F1D
:102EC00064F5407404D25FEA4E0E6D4146EB06068F
:102ED00042EAC62141EA55514FEAC52040EA5E5018
:102EE0004FEACE2EB4F1FD0C88BFBCF5E06F1ED8C2
:102EF000BEF1004F08BF5FEA500E50F1000041EBF9
:102F0000045170BD06F0004646EA010140EA0200A5
:102F100081EA0301B4EB5C04C2BFD4EB0C0541EAC7
:102F2000045170BD41F480114FF0000E013C00F3DC
:102F3000AB8014F1360FDEBF002001F0004170BD00
:102F4000C4F10004203C35DA0C341BDC04F1140419
:102F5000C4F1200500FA05F320FA04F001FA05F2A5
:102F600040EA020001F0004221F0004110EBD37072
:102F700021FA04F642EB06015EEA430E08BF20EA9E
:102F8000D37070BDC4F10C04C4F1200500FA04F341
:102F900020FA05F001FA04F240EA020001F00041D3
:102FA00010EBD37041F100015EEA430E08BF20EA46
:102FB000D37070BDC4F1200500FA05F24EEA020E8E
:102FC00020FA04F301FA05F243EA020321FA04F0BD
:102FD00001F0004121FA04F220EA020000EBD37074
:102FE0005EEA430E08BF20EAD37070BD94F0000F74
:102FF0000FD101F00046400041EB010111F4801FA8
:1030000008BF013CF7D041EA060195F0000F18BF58
:10301000704703F00046520043EB030313F4801F94
:1030200008BF013DF7D043EA0603704794EA0C0F4E
:103030000CEA135518BF95EA0C0F0CD050EA410664
:1030400018BF52EA4306D1D181EA030101F00041E1
:103050004FF0000070BD50EA410606BF1046194609
:1030600052EA430619D094EA0C0F02D150EA013615
:1030700013D195EA0C0F05D152EA03361CBF104656
:1030800019460AD181EA030101F0004141F0FE41F5
:1030900041F470014FF0000070BD41F0FE4141F479
:1030A000780170BD70B54FF0FF0C4CF4E06C1CEA79
:1030B00011541DBF1CEA135594EA0C0F95EA0C0F2E
:1030C00000F0A7F8A4EB050481EA030E52EA0335E9
:1030D0004FEA013100F088804FEA03334FF080550A
:1030E00045EA131343EA12634FEA022245EA111537
:1030F00045EA10654FEA00260EF000419D4208BFE8
:10310000964244F1FD0404F5407402D25B084FEA94
:103110003202B61A65EB03055B084FEA32024FF440
:1031200080104FF4002CB6EB020E75EB030E22BF9D
:10313000B61A754640EA0C005B084FEA3202B6EB5D
:10314000020E75EB030E22BFB61A754640EA5C000C
:103150005B084FEA3202B6EB020E75EB030E22BF9C
:10316000B61A754640EA9C005B084FEA3202B6EB9D
:10317000020E75EB030E22BFB61A754640EADC005C
:1031800055EA060E18D04FEA051545EA16754FEABE
:1031900006164FEAC30343EA52734FEAC2025FEADC
:1031A0001C1CC0D111F4801F0BD141EA00014FF06B
:1031B00000004FF0004CB6E711F4801F04BF01433C
:1031C0000020B4F1FD0C88BFBCF5E06F3FF6AFAE58
:1031D000B5EB030C04BFB6EB020C5FEA500C50F1E8
:1031E000000041EB045170BD0EF0004E4EEA11316B
:1031F00014EB5C04C2BFD4EB0C0541EA045170BD72
:1032000041F480114FF0000E013C90E645EA060EB5
:103210008DE60CEA135594EA0C0F08BF95EA0C0FE3
:103220003FF43BAF94EA0C0F0AD150EA01347FF42B
:1032300034AF95EA0C0F7FF425AF104619462CE702
:1032400095EA0C0F06D152EA03353FF4FDAE104665
:10325000194622E750EA410618BF52EA43067FF4B6
:10326000C5AE50EA41047FF40DAF52EA43057FF446
:10327000EBAE12E74FF0FF3C06E000BF4FF0010C51
:1032800002E000BF4FF0010C4DF804CD4FEA410CB5
:103290007FEA6C5C4FEA430C18BF7FEA6C5C1BD082
:1032A00001B050EA410C0CBF52EA430C91EA030F03
:1032B00002BF90EA020F0020704710F1000F91EA60
:1032C000030F58BF994208BF90422CBFD8176FEA2E
:1032D000E37040F0010070474FEA410C7FEA6C5CFC
:1032E00002D150EA013C07D14FEA430C7FEA6C5C03
:1032F000D6D152EA033CD3D05DF8040B704700BF2F
:103300008446104662468C461946634600E000BF7C
:1033100001B5FFF7B7FF002848BF10F1000F01BD4E
:103320004DF808EDFFF7F4FF0CBF012000205DF819
:1033300008FB00BF4DF808EDFFF7EAFF34BF01209E
:1033400000205DF808FB00BF4DF808EDFFF7E0FF37
:1033500094BF012000205DF808FB00BF4DF808ED88
:10336000FFF7CEFF94BF012000205DF808FB00BFEF
:103370004DF808EDFFF7C4FF34BF012000205DF8D1
:1033800008FB00BF4FEA410C7FEA6C5C02D150EAB7
:10339000013C0AD14FEA430C7FEA6C5C02D152EA4D
:1033A000033C02D14FF0000070474FF0010070471E
:1033B0004FEA410212F5001215D211D56FF478735D
:1033C000B3EB625212D94FEAC12343F0004343EA00
:1033D000505311F0004F23FA02F018BF40427047DB
:1033E0004FF00000704750EA013005D111F0004065
:1033F00008BF6FF0004070474FF00000704700BFFB
:103400004A0011D212F5001211D20DD56FF4787363
:10341000B3EB62520ED44FEAC12343F0004343EAB8
:10342000505323FA02F070474FF00000704750EA03
:10343000013002D14FF0FF3070474FF0000070476D
:103440004FEA4102B2F1E04324BFB3F5001CDCF1C6
:10345000FE5C0DD901F0004C4FEAC0024CEA5070FE
:10346000B2F1004F40EB830008BF20F0010070472D
:1034700011F0804F21D113F13872BCBF01F0004030
:10348000704741F480114FEA5252C2F11802C2F162
:10349000200C10FA0CF320FA02F018BF40F00100E3
:1034A0004FEAC1234FEAD32303FA0CFC40EA0C0095
:1034B00023FA02F34FEA4303CCE77FEA625307D1D2
:1034C00050EA01331EBF4FF0FE4040F44000704709
:1034D00001F0004040F0FE4040F40000704700BFA3
:1034E0004FF0FF0C1CEAD0521EBF1CEAD15392EAE7
:1034F0000C0F93EA0C0F6FD01A4480EA010C4002C3
:1035000018BF5FEA41211ED04FF0006343EA50101C
:1035100043EA5111A0FB01310CF00040B1F5000F5E
:103520003EBF490041EAD3715B0040EA010062F10D
:103530007F02FD2A1DD8B3F1004F40EBC25008BFF7
:1035400020F00100704790F0000F0CF0004C08BF15
:1035500049024CEA502040EA51207F3AC2BFD2F1E2
:10356000FF0340EAC250704740F400004FF00003F0
:10357000013A5DDC12F1190FDCBF00F0004070472A
:10358000C2F10002410021FA02F1C2F1200200FA68
:1035900002FC5FEA310040F1000053EA4C0308BF2F
:1035A00020EADC70704792F0000F00F0004C02BF80
:1035B000400010F4000F013AF9D040EA0C0093F0FB
:1035C000000F01F0004C02BF490011F4000F013B55
:1035D000F9D041EA0C018FE70CEAD15392EA0C0FC3
:1035E00018BF93EA0C0F0AD030F0004C18BF31F02E
:1035F000004CD8D180EA010000F00040704790F004
:10360000000F17BF90F0004F084691F0000F91F0A7
:10361000004F14D092EA0C0F01D142020FD193EA6D
:103620000C0F03D14B0218BF084608D180EA0100F5
:1036300000F0004040F0FE4040F40000704740F0D1
:10364000FE4040F4400070474FF0FF0C1CEAD0529F
:103650001EBF1CEAD15392EA0C0F93EA0C0F69D0FB
:10366000A2EB030280EA010C49024FEA402037D066
:103670004FF0805343EA111143EA10130CF000405D
:103680008B4238BF5B0042F17D024FF4000C8B424D
:1036900024BF5B1A40EA0C00B3EB510F24BFA3EB2D
:1036A000510340EA5C00B3EB910F24BFA3EB9103FD
:1036B00040EA9C00B3EBD10F24BFA3EBD10340EA57
:1036C000DC001B0118BF5FEA1C1CE0D1FD2A3FF69D
:1036D00050AF8B4240EBC25008BF20F00100704752
:1036E0000CF0004C4CEA50207F32C2BFD2F1FF03F5
:1036F00040EAC250704740F400004FF00003013A26
:1037000037E792F0000F00F0004C02BF400010F4C9
:10371000000F013AF9D040EA0C0093F0000F01F0DD
:10372000004C02BF490011F4000F013BF9D041EAFF
:103730000C0195E70CEAD15392EA0C0F08D1420232
:103740007FF47DAF93EA0C0F7FF470AF084676E705
:1037500093EA0C0F04D14B023FF44CAF08466EE7DE
:1037600030F0004C18BF31F0004CCAD130F00042AC
:103770007FF45CAF31F000437FF43CAF5FE700BF04
:1037800010B5054C13462CB10A4601460220AFF392
:10379000008010BD204610BD0000000010B5431E83
:1037A0000A44914204D011F8014B03F8014FF8E7A5
:1037B00010BD03460244934202D003F8011BFAE70E
:1037C0007047000038B5124B05461C68A36BD3B98F
:1037D0001820FEF7B1F943F20E33A06303804AF6D6
:1037E000CD33438041F2342383804EF26D63C38036
:1037F0004DF6EC630381052343810B238381012272
:103800000023C0E90423A36B00221D615A6138BD67
:103810008C000020034613F8012B002AFBD1181A54
:103820000138704721000A0861000A088D000A0863
:1038300091000A08000000002C01000018000000A0
:10384000F40100002C0100005000000043616C698D
:103850006272617465005261772052616E676573B0
:103860003A20583A20002D002C20593A20002C20D4
:103870005A3A2000203A3A2000472C200047000006
:103880000000000000000000891B0A08D31B0A0882
:10389000AB1B0A088B1B0A08B31B0A08BB1B0A08D0
:1038A000C31B0A08CB1B0A08000000000000000030
:1038B0001D1C0A080D1C0A080F1C0A0862617564A9
:1038C0000053657269616C005553425365726961BA
:1038D0006C31007479706500706172616D00636DA8
:1038E0006400696400686E64007374726D006669D8
:1038F0006C74006C766C0061646448616E646C6525
:10390000720072656D6F766548616E646C657200F9
:10391000656E756D48616E646C657273004A534FD5
:103920004E53747265616D4C6F6748616E646C656F
:10393000720061707000253031307520005D20000C
:1039400025640028293A2000205B00636F6465200D
:103950003D200025690064657461696C73203D2019
:10396000000D0A006C6E00666E00636F6465006493
:10397000657461696C006E6F6E6500747261636579
:1039800000696E666F007761726E006572726F72A9
:103990000070616E696300616C6C000000000000E3
:1039A00000000000E51C0A08EF1C0A08F91C0A08C0
:1039B000031D0A080D1D0A08191D0A08251D0A08FD
:1039C000311D0A08391D0A08431D0A084D1D0A0841
:1039D0006E616E006F7666002E00696E66005A009A
:1039E000252B3033643A253032750025592D256D4D
:1039F0002D25645425483A254D3A2553257A0061F2
:103A0000736374696D650000000000000000000031
:103A10009D200A08ED200A08FB200A08B11D0A08AB
:103A2000B1200A08D3200A08BF200A08E7200A08A4
:103A30009F200A08A3200A080000000000000000E0
:103A4000D9210A0829220A0837220A08B11D0A08C2
:103A500015220A08DB210A08F1210A0823220A0894
:103A600007220A08D5210A08000000000000000013
:103A7000E3230A08D9230A08CF230A0841230A08A6
:103A8000C3230A08B7230A08AB230A08A3230A089A
:103A900099230A088F230A084B230A080000000014
:103AA0000000000000000000000000000000000016
:103AB0000000000000000000000000000000000006
:103AC00000000000000000000000000000000000F6
:103AD00000000000000000000000000000000000E6
:103AE00000000000000000000000000000000000D6
:103AF00000000000000000000000000000000000C6
:103B000043000000DD010A08D5140A08F5170A0869
:103B1000F9170A08D51C0A089D1D0A0815200A086D
:103B200055200A0889200A08ED230A08C9260A0830
:103B30003D270A0801280A0885280A0809290A08D1
:043B40000000000081
:103B4400FFFFFFFF0100000001000000102700003C
:103B5400D0070000D0070000D0070000D007000005
:103B6400D0070000D0070000FF390A080000000059
:103B7400A03A0A08C03A0A08E03A0A08000000001D
:103B8400000000000000000000000000003B0A08E4
:103B94000000000000000000000000000000000021
:103BA4000000000000000000000000000000000011
:103BB4000000000000000000000000000000000001
:103BC4000000000000000000000000002C000020A5
:103BD400FFFFFFFF00000102030405060708090AAE
:103BE4000B0C0D0E0F101112131415161718191AA9
:083BF4001B1C1D1E1F202800F0
:043BFC0078563412B1
:04000005080A0020C5
:00000001FF
